{"contracts/VotingOrganization.sol":{"VotingOrganization":{"abi":[{"inputs":[],"stateMutability":"nonpayable","type":"constructor"},{"inputs":[{"internalType":"address","name":"_candidateAddress","type":"address"},{"internalType":"string","name":"_message","type":"string"}],"name":"approveCandidate","outputs":[],"stateMutability":"nonpayable","type":"function"},{"inputs":[{"internalType":"address","name":"_voterAddress","type":"address"},{"internalType":"string","name":"_message","type":"string"}],"name":"approveVoter","outputs":[],"stateMutability":"nonpayable","type":"function"},{"inputs":[{"internalType":"uint256","name":"","type":"uint256"}],"name":"approvedCandidates","outputs":[{"internalType":"address","name":"","type":"address"}],"stateMutability":"view","type":"function"},{"inputs":[{"internalType":"uint256","name":"","type":"uint256"}],"name":"approvedVoters","outputs":[{"internalType":"address","name":"","type":"address"}],"stateMutability":"view","type":"function"},{"inputs":[{"internalType":"address","name":"","type":"address"}],"name":"candidates","outputs":[{"internalType":"address","name":"candidateAddress","type":"address"},{"internalType":"string","name":"name","type":"string"},{"internalType":"string","name":"ipfs","type":"string"},{"internalType":"uint256","name":"registerId","type":"uint256"},{"internalType":"enum VotingOrganization.ApprovalStatus","name":"status","type":"uint8"},{"internalType":"uint256","name":"voteCount","type":"uint256"},{"internalType":"string","name":"message","type":"string"}],"stateMutability":"view","type":"function"},{"inputs":[{"internalType":"address","name":"_newOwner","type":"address"}],"name":"changeOwner","outputs":[],"stateMutability":"nonpayable","type":"function"},{"inputs":[],"name":"endTime","outputs":[{"internalType":"uint256","name":"","type":"uint256"}],"stateMutability":"view","type":"function"},{"inputs":[],"name":"getAllApprovedCandidates","outputs":[{"components":[{"internalType":"address","name":"candidateAddress","type":"address"},{"internalType":"string","name":"name","type":"string"},{"internalType":"string","name":"ipfs","type":"string"},{"internalType":"uint256","name":"registerId","type":"uint256"},{"internalType":"enum VotingOrganization.ApprovalStatus","name":"status","type":"uint8"},{"internalType":"uint256","name":"voteCount","type":"uint256"},{"internalType":"string","name":"message","type":"string"}],"internalType":"struct VotingOrganization.Candidate[]","name":"","type":"tuple[]"}],"stateMutability":"view","type":"function"},{"inputs":[],"name":"getAllApprovedVoters","outputs":[{"components":[{"internalType":"address","name":"voterAddress","type":"address"},{"internalType":"string","name":"name","type":"string"},{"internalType":"string","name":"ipfs","type":"string"},{"internalType":"uint256","name":"registerId","type":"uint256"},{"internalType":"enum VotingOrganization.ApprovalStatus","name":"status","type":"uint8"},{"internalType":"bool","name":"hasVoted","type":"bool"},{"internalType":"string","name":"message","type":"string"}],"internalType":"struct VotingOrganization.Voter[]","name":"","type":"tuple[]"}],"stateMutability":"view","type":"function"},{"inputs":[],"name":"getAllRegisteredCandidates","outputs":[{"components":[{"internalType":"address","name":"candidateAddress","type":"address"},{"internalType":"string","name":"name","type":"string"},{"internalType":"string","name":"ipfs","type":"string"},{"internalType":"uint256","name":"registerId","type":"uint256"},{"internalType":"enum VotingOrganization.ApprovalStatus","name":"status","type":"uint8"},{"internalType":"uint256","name":"voteCount","type":"uint256"},{"internalType":"string","name":"message","type":"string"}],"internalType":"struct VotingOrganization.Candidate[]","name":"","type":"tuple[]"}],"stateMutability":"view","type":"function"},{"inputs":[],"name":"getAllRegisteredVoters","outputs":[{"components":[{"internalType":"address","name":"voterAddress","type":"address"},{"internalType":"string","name":"name","type":"string"},{"internalType":"string","name":"ipfs","type":"string"},{"internalType":"uint256","name":"registerId","type":"uint256"},{"internalType":"enum VotingOrganization.ApprovalStatus","name":"status","type":"uint8"},{"internalType":"bool","name":"hasVoted","type":"bool"},{"internalType":"string","name":"message","type":"string"}],"internalType":"struct VotingOrganization.Voter[]","name":"","type":"tuple[]"}],"stateMutability":"view","type":"function"},{"inputs":[],"name":"getAllVotersWhoVoted","outputs":[{"components":[{"internalType":"address","name":"voterAddress","type":"address"},{"internalType":"string","name":"name","type":"string"},{"internalType":"string","name":"ipfs","type":"string"},{"internalType":"uint256","name":"registerId","type":"uint256"},{"internalType":"enum VotingOrganization.ApprovalStatus","name":"status","type":"uint8"},{"internalType":"bool","name":"hasVoted","type":"bool"},{"internalType":"string","name":"message","type":"string"}],"internalType":"struct VotingOrganization.Voter[]","name":"","type":"tuple[]"}],"stateMutability":"view","type":"function"},{"inputs":[{"internalType":"address","name":"_candidateAddress","type":"address"}],"name":"getCandidate","outputs":[{"components":[{"internalType":"address","name":"candidateAddress","type":"address"},{"internalType":"string","name":"name","type":"string"},{"internalType":"string","name":"ipfs","type":"string"},{"internalType":"uint256","name":"registerId","type":"uint256"},{"internalType":"enum VotingOrganization.ApprovalStatus","name":"status","type":"uint8"},{"internalType":"uint256","name":"voteCount","type":"uint256"},{"internalType":"string","name":"message","type":"string"}],"internalType":"struct VotingOrganization.Candidate","name":"","type":"tuple"}],"stateMutability":"view","type":"function"},{"inputs":[],"name":"getCurrentVotingStatus","outputs":[{"components":[{"internalType":"address","name":"candidateAddress","type":"address"},{"internalType":"string","name":"name","type":"string"},{"internalType":"string","name":"ipfs","type":"string"},{"internalType":"uint256","name":"registerId","type":"uint256"},{"internalType":"enum VotingOrganization.ApprovalStatus","name":"status","type":"uint8"},{"internalType":"uint256","name":"voteCount","type":"uint256"},{"internalType":"string","name":"message","type":"string"}],"internalType":"struct VotingOrganization.Candidate","name":"","type":"tuple"}],"stateMutability":"view","type":"function"},{"inputs":[{"internalType":"address","name":"_voterAddress","type":"address"}],"name":"getVoter","outputs":[{"components":[{"internalType":"address","name":"voterAddress","type":"address"},{"internalType":"string","name":"name","type":"string"},{"internalType":"string","name":"ipfs","type":"string"},{"internalType":"uint256","name":"registerId","type":"uint256"},{"internalType":"enum VotingOrganization.ApprovalStatus","name":"status","type":"uint8"},{"internalType":"bool","name":"hasVoted","type":"bool"},{"internalType":"string","name":"message","type":"string"}],"internalType":"struct VotingOrganization.Voter","name":"","type":"tuple"}],"stateMutability":"view","type":"function"},{"inputs":[],"name":"getWinningCandidate","outputs":[{"components":[{"internalType":"address","name":"candidateAddress","type":"address"},{"internalType":"string","name":"name","type":"string"},{"internalType":"string","name":"ipfs","type":"string"},{"internalType":"uint256","name":"registerId","type":"uint256"},{"internalType":"enum VotingOrganization.ApprovalStatus","name":"status","type":"uint8"},{"internalType":"uint256","name":"voteCount","type":"uint256"},{"internalType":"string","name":"message","type":"string"}],"internalType":"struct VotingOrganization.Candidate","name":"","type":"tuple"}],"stateMutability":"view","type":"function"},{"inputs":[],"name":"owner","outputs":[{"internalType":"address","name":"","type":"address"}],"stateMutability":"view","type":"function"},{"inputs":[{"internalType":"string","name":"_name","type":"string"},{"internalType":"string","name":"_ipfs","type":"string"}],"name":"registerCandidate","outputs":[],"stateMutability":"nonpayable","type":"function"},{"inputs":[{"internalType":"string","name":"_name","type":"string"},{"internalType":"string","name":"_ipfs","type":"string"}],"name":"registerVoter","outputs":[],"stateMutability":"nonpayable","type":"function"},{"inputs":[{"internalType":"uint256","name":"","type":"uint256"}],"name":"registeredCandidates","outputs":[{"internalType":"address","name":"","type":"address"}],"stateMutability":"view","type":"function"},{"inputs":[{"internalType":"uint256","name":"","type":"uint256"}],"name":"registeredVoters","outputs":[{"internalType":"address","name":"","type":"address"}],"stateMutability":"view","type":"function"},{"inputs":[{"internalType":"address","name":"_candidateAddress","type":"address"},{"internalType":"string","name":"_message","type":"string"}],"name":"rejectCandidate","outputs":[],"stateMutability":"nonpayable","type":"function"},{"inputs":[{"internalType":"address","name":"_voterAddress","type":"address"},{"internalType":"string","name":"_message","type":"string"}],"name":"rejectVoter","outputs":[],"stateMutability":"nonpayable","type":"function"},{"inputs":[],"name":"resetContract","outputs":[],"stateMutability":"nonpayable","type":"function"},{"inputs":[{"internalType":"uint256","name":"_startTime","type":"uint256"},{"internalType":"uint256","name":"_endTime","type":"uint256"}],"name":"setVotingPeriod","outputs":[],"stateMutability":"nonpayable","type":"function"},{"inputs":[],"name":"startTime","outputs":[{"internalType":"uint256","name":"","type":"uint256"}],"stateMutability":"view","type":"function"},{"inputs":[{"internalType":"string","name":"_name","type":"string"},{"internalType":"string","name":"_ipfs","type":"string"}],"name":"updateCandidate","outputs":[],"stateMutability":"nonpayable","type":"function"},{"inputs":[{"internalType":"string","name":"_name","type":"string"},{"internalType":"string","name":"_ipfs","type":"string"}],"name":"updateVoter","outputs":[],"stateMutability":"nonpayable","type":"function"},{"inputs":[{"internalType":"address","name":"_candidateAddress","type":"address"}],"name":"vote","outputs":[],"stateMutability":"nonpayable","type":"function"},{"inputs":[{"internalType":"address","name":"","type":"address"}],"name":"voters","outputs":[{"internalType":"address","name":"voterAddress","type":"address"},{"internalType":"string","name":"name","type":"string"},{"internalType":"string","name":"ipfs","type":"string"},{"internalType":"uint256","name":"registerId","type":"uint256"},{"internalType":"enum VotingOrganization.ApprovalStatus","name":"status","type":"uint8"},{"internalType":"bool","name":"hasVoted","type":"bool"},{"internalType":"string","name":"message","type":"string"}],"stateMutability":"view","type":"function"},{"inputs":[{"internalType":"uint256","name":"","type":"uint256"}],"name":"votersWhoVoted","outputs":[{"internalType":"address","name":"","type":"address"}],"stateMutability":"view","type":"function"}],"evm":{"bytecode":{"linkReferences":{},"object":"6080806040523461003257600080546001600160a01b0319163317905560016003819055600455612b8790816100388239f35b600080fdfe6040608081526004908136101561001557600080fd5b60003560e01c80620f987f1461225c5780630dbce4dd14611e5857806310b01b8514611e0c5780632294c28d14611c135780632436e06b14611bb55780633197cbb614611b965780633e211ad414611b1d5780633f66f48b14611abf5780634a2846a81461198e57806359632c221461184f5780635ca39016146118035780636c7f5767146117a55780636dd7d8ea1461159757806378e97925146115785780637eb21b5114611420578063860d27fa146111e25780638a4c884714610d705780638ab66a9014610cad5780638da5cb5b14610c84578063a15a36c714610bf5578063a3ec138d14610b31578063a6f9dae114610a94578063aed9301014610a48578063b181a8fc146107cd578063b7adcf1d14610714578063be230f0414610656578063beddc62a14610589578063d3a078da14610498578063d4f50f98146103dc578063f927cc29146103515763fad761d31461017357600080fd5b3461034c57610181366125dc565b92909160018060a01b03809361019c82600054163314612857565b1693846000526101ba602092600584526000209485541615156128ae565b6005838501946001958660ff1982541617905501918151916001600160401b038311610337579082916101ed855461267d565b601f81116102fc575b5081601f8411600114610296575060009261028b575b5050600019600383901b1c191690841b1790555b60095491600160401b831015610276578201806009558210156102615750600080516020612b128339815191520180546001600160a01b0319169091179055005b603290634e487b7160e01b6000525260246000fd5b604182634e487b7160e01b6000525260246000fd5b01519050388061020c565b9190879450601f1984168660005283600020936000905b8282106102e357505084116102ca575b505050811b019055610220565b015160001960f88460031b161c191690553880806102bd565b8484015186558a979095019493840193908101906102ad565b610327908660005283600020601f860160051c81019185871061032d575b601f0160051c01906127c1565b386101f6565b909150819061031a565b604185634e487b7160e01b6000525260246000fd5b600080fd5b50903461034c57600036600319011261034c5761036c612947565b5060025442111561039a5761039682610383612a31565b90519182916020835260208301906122dd565b0390f35b6020606492519162461bcd60e51b8352820152601e60248201527f566f74696e6720706572696f64206973206e6f74206f766572207965742e00006044820152fd5b50903461034c57602036600319011261034c576103969161048160056104006125c6565b93610409612947565b5060018060a01b038095166000528160205260ff846000209185519661042e88612357565b835416875261043f600184016126b7565b6020880152610450600284016126b7565b86880152600383015460608801528201546104708282166080890161275d565b60081c16151560a0860152016126b7565b60c0830152519182916020835260208301906124fd565b503461034c57600036600319011261034c57600754906104b782612981565b9160005b8181106104cf578251806103968682612564565b806105646104df6105849361248f565b60018060a09493941b03809354600392831b1c16600052600590602090828252886000209189519561051087612357565b8354168652610521600184016126b7565b90860152610531600283016126b7565b8986015281015460608501528981015460ff906105538282166080880161275d565b60081c16151560a0850152016126b7565b60c082015261057382876129d1565b5261057e81866129d1565b50612832565b6104bb565b503461034c57600036600319011261034c57600a54906105a882612981565b9160005b8181106105c057825180610396868261261b565b806105646105d0610651936124c6565b60018060a09493941b03809354600392831b1c16600052600690602090828252886000209189519561060187612357565b8354168652610612600184016126b7565b90860152610622600283016126b7565b89860152810154606085015261064160ff8b830154166080860161275d565b600581015460a0850152016126b7565b6105ac565b503461034c57600036600319011261034c576009549061067582612981565b9160005b81811061068d578251806103968682612564565b61070f9060018060a01b038082600080516020612b128339815191520154166000526105646005602081815287600020908851946106ca86612357565b82541685526106db600183016126b7565b908501526106eb600282016126b7565b88850152600381015460608501528981015460ff906105538282166080880161275d565b610679565b50903461034c57602036600319011261034c57610396916107b660066107386125c6565b93610741612947565b5060018060a01b03809516600052816020526107a660ff856000209286519761076989612357565b845416885261077a600185016126b7565b602089015261078b600285016126b7565b8789015260038401546060890152830154166080870161275d565b600581015460a0860152016126b7565b60c0830152519182916020835260208301906122dd565b503461034c57600036600319011261034c576000546001600160a01b0391906107f99083163314612857565b60005b600754811015610865578061085b846108176108609461248f565b919054600392831b1c1660005260059081602052600086812091818355610840600184016129e5565b61084c600284016129e5565b820155600088820155016129e5565b612832565b6107fc565b5060005b6008548110156108d4578061085b846108846108cf94612442565b919054600392831b1c16600052600690816020526000868120918183556108ad600184016129e5565b6108b9600284016129e5565b82015560008882015560006005820155016129e5565b610869565b600184600754600060075580610a0a575b506008546000600855806109cc575b506009546000600955806109a0575b50600a546000600a5580610962575b50600b546000600b5580610936575b50816003555560006001556000600255600080f35b600080516020612b32833981519152908101905b8181106109575750610921565b60008155830161094a565b7fc65a7bb8d6351c1cf70c95a316cc6a92839c986682d98bc35f958f4883f9d2a8908101905b8181106109955750610912565b600081558301610988565b600080516020612b12833981519152908101905b8181106109c15750610903565b6000815583016109b4565b7ff3f7a9fe364faab93b216da50a3214154f22a0a2b415b23a84c8169e8b636ee3908101905b8181106109ff57506108f4565b6000815583016109f2565b7fa66cc928b5edb82af9bd49922954155ab7b0942694bea4ce44661d9a8736c688908101905b818110610a3d57506108e5565b600081558301610a30565b50903461034c57602036600319011261034c57359060095482101561034c576009600052600080516020612b128339815191529091015490516001600160a01b03919091168152602090f35b50903461034c57602036600319011261034c57610aaf6125c6565b60005491906001600160a01b0390610aca3383861614612857565b16928315610ae45750506001600160a01b03191617600055005b906020608492519162461bcd60e51b8352820152602160248201527f4e6577206f776e657220616464726573732063616e6e6f74206265207a65726f6044820152601760f91b6064820152fd5b503461034c57602036600319011261034c576001600160a01b03916103969083610b596125c6565b16600052600560205282600020938454169260ff610b79600187016126b7565b95610bc8610b89600283016126b7565b93610b9f600560038501549785015494016126b7565b94610bbb82519a8b9a8b5260e060208c015260e08b019061227a565b91898303908a015261227a565b936060870152610bdd608087018383166122ba565b60081c16151560a085015283820360c085015261227a565b50903461034c578160031936011261034c5780359060243592610c2360018060a01b03600054163314612857565b83831015610c35575050600155600255005b906020608492519162461bcd60e51b8352820152602360248201527f53746172742074696d65206d757374206265206265666f726520656e6420746960448201526236b29760e91b6064820152fd5b503461034c57600036600319011261034c5760005490516001600160a01b039091168152602090f35b503461034c57602036600319011261034c576001600160a01b03916103969083610cd56125c6565b166000526006602052826000209384541692610cf3600186016126b7565b94610d5e610d03600283016126b7565b92610d4e60ff6003850154968501541691610d256006600587015496016126b7565b95610d4182519b8c9b8c5260e060208d015260e08c019061227a565b918a8303908b015261227a565b94606088015260808701906122ba565b60a085015283820360c085015261227a565b50903461034c57610d80366123ff565b919092600354815193610d9285612357565b3385526020850195865282850152606084015260006080840152600060a0840152610dbb612769565b60c08401523360009081526005602052819020835181546001600160a01b0319166001600160a01b039190911617815593518051906001600160401b0382116111cd578190610e0d600188015461267d565b601f8111611198575b50602090601f83116001146111265760009261111b575b50508160011b916000199060031b1c19161760018501555b8201519283516001600160401b03811161104257610e66600283015461267d565b601f81116110e6575b506020601f821160011461107757819293949560009261106c575b50508160011b916000199060031b1c19161760028201555b6060830151600382015581810160808401516003811015611057579181610ecd60c0946005946127d8565b60a0860151151561ff0082549160081b169061ff001916179055019201519182516001600160401b03811161104257610f06825461267d565b601f8111611010575b506020601f8211600114610faa5781929394600092610f9f575b50508160011b916000199060031b1c19161790555b60075490600160401b821015610f8a57610f5e826001810160075561248f565b81549060031b9060018060a01b03821b809233901b16911916179055610f85600354612832565b600355005b604190634e487b7160e01b6000525260246000fd5b015190503880610f29565b601f198216908360005260206000209160005b818110610ff857509583600195969710610fdf575b505050811b019055610f3e565b015160001960f88460031b161c19169055388080610fd2565b9192602060018192868b015181550194019201610fbd565b61103c90836000526020600020601f840160051c8101916020851061032d57601f0160051c01906127c1565b38610f0f565b604183634e487b7160e01b6000525260246000fd5b602184634e487b7160e01b6000525260246000fd5b015190503880610e8a565b6002830160005260206000209060005b601f19841681106110ce575060019394959683601f198116106110b5575b505050811b016002820155610ea2565b015160001960f88460031b161c191690553880806110a5565b9091602060018192858b015181550193019101611087565b61111590600284016000526020600020601f840160051c8101916020851061032d57601f0160051c01906127c1565b38610e6f565b015190503880610e2d565b9250600187016000526020600020906000935b601f198416851061117d576001945083601f19811610611164575b505050811b016001850155610e45565b015160001960f88460031b161c19169055388080611154565b81810151835560209485019460019093019290910190611139565b6111c790600189016000526020600020601f850160051c8101916020861061032d57601f0160051c01906127c1565b38610e16565b604184634e487b7160e01b6000525260246000fd5b503461034c576111f1366123ff565b9033600052602092600584526000209161121560018060a01b0384541615156128ae565b600193848401938351946001600160401b039586811161140b57611239825461267d565b95601f968781116113dd575b508490878311600114611375576002949392916000918361136a575b5050600019600383901b1c191690891b1790555b01958251948511610f8a575061128b865461267d565b838111611332575b50809284116001146112cf57509282939183926000946112c4575b50501b916000199060031b1c1916179055600080f35b0151925038806112ae565b919083601f1981168760005284600020946000905b8883831061131857505050106112ff575b505050811b019055005b015160001960f88460031b161c191690553880806112f5565b8587015188559096019594850194879350908101906112e4565b61135b9087600052826000208580880160051c820192858910611361575b0160051c01906127c1565b38611293565b92508192611350565b015190503880611261565b9392918991601f1982169084600052876000209160005b898282106113c75750509683600298106113ae575b505050811b019055611275565b015160001960f88460031b161c191690553880806113a1565b838a015185558e9690940193928301920161138c565b6114059084600052866000208980860160051c820192898710611361570160051c01906127c1565b38611245565b604189634e487b7160e01b6000525260246000fd5b503461034c5761142f366125dc565b909160018060a01b039061144882600054163314612857565b818416600052611466602091600683526000209283541615156128ed565b6006858301926001938460ff1982541617905501928051956001600160401b038711610f8a5750611497845461267d565b601f8111611548575b5081601f87116001146114e157506114d495926000928492836114d6575b50501b916000199060031b1c19161790556127f0565b005b0151925038806114be565b909591601f198316968560005282600020926000905b898210611531575050836114d49810611518575b505050811b0190556127f0565b015160001960f88460031b161c1916905538808061150b565b8087859682949686015181550195019301906114f7565b611572908560005283600020601f890160051c810191858a1061032d57601f0160051c01906127c1565b386114a0565b503461034c57600036600319011261034c576020906001549051908152f35b50903461034c576020918260031936011261034c576115b46125c6565b9260015442101580611799575b156117605733600052600581528282600020019081549460ff861660038110156116c55760010361171d5760ff8660081c166116da5760018060a01b031660005260068152826000209260ff858501541660038110156116c5576001036116825750506101006005939461ff0019161790550161163e8154612832565b9055600b5490600160401b821015610f8a576001820180600b558210156102615750600080516020612b328339815191520180546001600160a01b03191633179055005b5162461bcd60e51b815280850191909152601a60248201527f43616e646964617465206973206e6f7420617070726f7665642e0000000000006044820152606490fd5b602186634e487b7160e01b6000525260246000fd5b835162461bcd60e51b8152808601839052601760248201527f596f75206861766520616c726561647920766f7465642e0000000000000000006044820152606490fd5b835162461bcd60e51b8152808601839052601e60248201527f596f7520617265206e6f7420616e20617070726f76656420766f7465722e00006044820152606490fd5b905162461bcd60e51b81529182015260156024820152742b37ba34b7339034b9903737ba1030b1ba34bb329760591b6044820152606490fd5b506002544211156115c1565b50903461034c57602036600319011261034c57359060085482101561034c5760086000527ff3f7a9fe364faab93b216da50a3214154f22a0a2b415b23a84c8169e8b636ee39091015490516001600160a01b03919091168152602090f35b503461034c57600036600319011261034c576008549061182282612981565b9160005b81811061183a57825180610396868261261b565b806105646105d061184a93612442565b611826565b50903461034c5761185f366125dc565b929091600660018060a01b0361187a81600054163314612857565b8085166000526118976020948386526000209182541615156128ed565b828101600260ff1982541617905501918451916001600160401b038311610f8a57506118c3835461267d565b601f811161195e575b5080601f831160011461190c575081906114d495600092611901575b50508160011b916000199060031b1c19161790556127f0565b0151905038806118e8565b9194601f1986168460005283600020936000905b8282106119465750509160019391876114d498941061151857505050811b0190556127f0565b80600186978294978701518155019601940190611920565b611988908460005282600020601f850160051c81019184861061032d57601f0160051c01906127c1565b386118cc565b503461034c576005916119a0366125dc565b939060018060a01b0380916119ba82600054163314612857565b166000526119d56020948386526000209182541615156128ae565b828101600260ff1982541617905501918351916001600160401b038311610f8a5750611a01835461267d565b601f8111611a8f575b5080601f8311600114611a465750819293600092611a3b575b5050600019600383901b1c191660019190911b179055005b015190503880611a23565b90601f198316948460005282600020926000905b878210611a775750508360019596106112ff57505050811b019055005b80600185968294968601518155019501930190611a5a565b611ab9908460005282600020601f850160051c81019184861061032d57601f0160051c01906127c1565b38611a0a565b50903461034c57602036600319011261034c573590600a5482101561034c57600a6000527fc65a7bb8d6351c1cf70c95a316cc6a92839c986682d98bc35f958f4883f9d2a89091015490516001600160a01b03919091168152602090f35b503461034c57600036600319011261034c57600b5490611b3c82612981565b9160005b818110611b54578251806103968682612564565b611b919060018060a01b038082600080516020612b328339815191520154166000526105646005602081815287600020908851946106ca86612357565b611b40565b503461034c57600036600319011261034c576020906002549051908152f35b50903461034c57602036600319011261034c57359060075482101561034c5760076000527fa66cc928b5edb82af9bd49922954155ab7b0942694bea4ce44661d9a8736c6889091015490516001600160a01b03919091168152602090f35b503461034c57611c22366123ff565b90336000526020926006845260002091611c4660018060a01b0384541615156128ed565b600193848401938351946001600160401b039586811161140b57611c6a825461267d565b95601f96878111611dde575b508490878311600114611d765760029493929160009183611d6b575b5050600019600383901b1c191690891b1790555b01958251948511610f8a5750611cbc865461267d565b838111611d3d575b5080928411600114611cf457509282939183926000946112c45750501b916000199060031b1c1916179055600080f35b919083601f1981168760005284600020946000905b88838310611d2357505050106112ff57505050811b019055005b858701518855909601959485019487935090810190611d09565b611d659087600052826000208580880160051c820192858910611361570160051c01906127c1565b38611cc4565b015190503880611c92565b9392918991601f1982169084600052876000209160005b89828210611dc8575050968360029810611daf575b505050811b019055611ca6565b015160001960f88460031b161c19169055388080611da2565b838a015185558e96909401939283019201611d8d565b611e069084600052866000208980860160051c820192898710611361570160051c01906127c1565b38611c76565b50903461034c57602036600319011261034c573590600b5482101561034c57600b600052600080516020612b328339815191529091015490516001600160a01b03919091168152602090f35b50903461034c57611e68366123ff565b825493805194611e7786612357565b338652602086019384528186019283526060860190815260808601906000825260a087019260008452611ea8612769565b60c0890152336000908152600660205220875181546001600160a01b0319166001600160a01b0391821617825595518051919591906001600160401b03821161140b578190611efa600189015461267d565b601f8111612227575b50602090601f83116001146121b5576000926121aa575b50508160011b916000199060031b1c19161760018601555b51805160028601916001600160401b03821161140b578190611f54845461267d565b601f8111612178575b50602090601f831160011461211257600092612107575b50508160011b916000199060031b1c19161790555b5160038401555160038110156120f25791600691611fab60c0948784016127d8565b516005820155019301519283516001600160401b0381116111cd57611fd0825461267d565b601f81116120c0575b50602094601f821160011461205a5794819293949560009261204f575b50508160011b916000199060031b1c19161790555b600854600160401b8110156110425780600161202a9201600855612442565b819291549060031b91821b809233901b1691191617905561204b8154612832565b9055005b015190503880611ff6565b601f198216958360005260206000209160005b8881106120a85750836001959697981061208f575b505050811b01905561200b565b015160001960f88460031b161c19169055388080612082565b9192602060018192868501518155019401920161206d565b6120ec90836000526020600020601f840160051c8101916020851061032d57601f0160051c01906127c1565b38611fd9565b602185634e487b7160e01b6000525260246000fd5b015190503880611f74565b6000858152602081209350601f198516905b8181106121605750908460019594939210612147575b505050811b019055611f89565b015160001960f88460031b161c1916905538808061213a565b92936020600181928786015181550195019301612124565b6121a490856000526020600020601f850160051c8101916020861061032d57601f0160051c01906127c1565b38611f5d565b015190503880611f1a565b9250600188016000526020600020906000935b601f198416851061220c576001945083601f198116106121f3575b505050811b016001860155611f32565b015160001960f88460031b161c191690553880806121e3565b818101518355602094850194600190930192909101906121c8565b6122569060018a016000526020600020601f850160051c8101916020861061032d57601f0160051c01906127c1565b38611f03565b503461034c57600036600319011261034c5761039690610383612a31565b919082519283825260005b8481106122a6575050826000602080949584010152601f8019910116010190565b602081830181015184830182015201612285565b9060038210156122c75752565b634e487b7160e01b600052602160045260246000fd5b6123549160018060a01b03825116815260c061231d61230b602085015160e0602086015260e085019061227a565b6040850151848203604086015261227a565b926060810151606084015261233a608082015160808501906122ba565b60a081015160a084015201519060c081840391015261227a565b90565b60e081019081106001600160401b0382111761237257604052565b634e487b7160e01b600052604160045260246000fd5b90601f801991011681019081106001600160401b0382111761237257604052565b81601f8201121561034c578035906001600160401b03821161237257604051926123dd601f8401601f191660200185612388565b8284526020838301011161034c57816000926020809301838601378301015290565b90604060031983011261034c576001600160401b0360043581811161034c578361242b916004016123a9565b9260243591821161034c57612354916004016123a9565b6008548110156124795760086000527ff3f7a9fe364faab93b216da50a3214154f22a0a2b415b23a84c8169e8b636ee30190600090565b634e487b7160e01b600052603260045260246000fd5b6007548110156124795760076000527fa66cc928b5edb82af9bd49922954155ab7b0942694bea4ce44661d9a8736c6880190600090565b600a5481101561247957600a6000527fc65a7bb8d6351c1cf70c95a316cc6a92839c986682d98bc35f958f4883f9d2a80190600090565b6123549160018060a01b03825116815260c061252b61230b602085015160e0602086015260e085019061227a565b9260608101516060840152612548608082015160808501906122ba565b60a0810151151560a084015201519060c081840391015261227a565b602080820190808352835180925260408301928160408460051b8301019501936000915b8483106125985750505050505090565b90919293949584806125b6600193603f198682030187528a516124fd565b9801930193019194939290612588565b600435906001600160a01b038216820361034c57565b90604060031983011261034c576004356001600160a01b038116810361034c5791602435906001600160401b03821161034c57612354916004016123a9565b602080820190808352835180925260408301928160408460051b8301019501936000915b84831061264f5750505050505090565b909192939495848061266d600193603f198682030187528a516122dd565b980193019301919493929061263f565b90600182811c921680156126ad575b602083101461269757565b634e487b7160e01b600052602260045260246000fd5b91607f169161268c565b90604051918260008254926126cb8461267d565b90818452600194858116908160001461273a57506001146126f7575b50506126f592500383612388565b565b9093915060005260209081600020936000915b8183106127225750506126f5935082010138806126e7565b8554888401850152948501948794509183019161270a565b9150506126f594506020925060ff191682840152151560051b82010138806126e7565b60038210156122c75752565b60405190606082018281106001600160401b03821117612372576040526026825265656e64696e6760d01b6040837f43757272656e746c7920796f757220726567697374657274696f6e206973207060208201520152565b8181106127cc575050565b600081556001016127c1565b9060038110156122c75760ff80198354169116179055565b600a54600160401b8110156123725780600161280f9201600a556124c6565b819291549060031b9160018060a01b039283811b93849216901b16911916179055565b60001981146128415760010190565b634e487b7160e01b600052601160045260246000fd5b1561285e57565b60405162461bcd60e51b815260206004820152602260248201527f4f6e6c79206f776e65722063616e2063616c6c20746869732066756e6374696f604482015261371760f11b6064820152608490fd5b156128b557565b60405162461bcd60e51b815260206004820152601060248201526f2b37ba32b9103737ba103337bab7321760811b6044820152606490fd5b156128f457565b60405162461bcd60e51b815260206004820152601460248201527321b0b73234b230ba32903737ba103337bab7321760611b6044820152606490fd5b6001600160401b0381116123725760051b60200190565b6040519061295482612357565b606060c0836000815282602082015282604082015260008382015260006080820152600060a08201520152565b9061298b82612930565b6129986040519182612388565b82815280926129a9601f1991612930565b019060005b8281106129ba57505050565b6020906129c5612947565b828285010152016129ae565b80518210156124795760209160051b010190565b6129ef815461267d565b90816129f9575050565b81601f60009311600114612a0b575055565b81835260208320612a2791601f0160051c8101906001016127c1565b8160208120915555565b612a39612947565b50612a42612947565b600a546000805b828110612a565750505090565b612a5f816124c6565b60018060a01b03809254600392831b1c16600052612ae5600660209281845260408060002094815196612a9188612357565b8654168752612aa2600187016126b7565b90870152612ab2600286016126b7565b908601528301546060850152612ad260ff6004850154166080860161275d565b60058301549260a08501938452016126b7565b60c083015251838111612b03575b5050612afe90612832565b612a49565b9094509150612afe38612af356fe6e1540171b6c0c960b71a7020d9f60077f6af931a8bbf590da0223dacf75c7af0175b7a638427703f0dbe7bb9bbf987a2551717b34e79f33b5b1008d1fa01db9a2646970667358221220982e51a2cbcd608b7a6fcec559c14208912174c7aa28fd41955098afca2c810064736f6c63430008110033","opcodes":"PUSH1 0x80 DUP1 PUSH1 0x40 MSTORE CALLVALUE PUSH2 0x32 JUMPI PUSH1 0x0 DUP1 SLOAD PUSH1 0x1 PUSH1 0x1 PUSH1 0xA0 SHL SUB NOT AND CALLER OR SWAP1 SSTORE PUSH1 0x1 PUSH1 0x3 DUP2 SWAP1 SSTORE PUSH1 0x4 SSTORE PUSH2 0x2B87 SWAP1 DUP2 PUSH2 0x38 DUP3 CODECOPY RETURN JUMPDEST PUSH1 0x0 DUP1 REVERT INVALID PUSH1 0x40 PUSH1 0x80 DUP2 MSTORE PUSH1 0x4 SWAP1 DUP2 CALLDATASIZE LT ISZERO PUSH2 0x15 JUMPI PUSH1 0x0 DUP1 REVERT JUMPDEST PUSH1 0x0 CALLDATALOAD PUSH1 0xE0 SHR DUP1 PUSH3 0xF987F EQ PUSH2 0x225C JUMPI DUP1 PUSH4 0xDBCE4DD EQ PUSH2 0x1E58 JUMPI DUP1 PUSH4 0x10B01B85 EQ PUSH2 0x1E0C JUMPI DUP1 PUSH4 0x2294C28D EQ PUSH2 0x1C13 JUMPI DUP1 PUSH4 0x2436E06B EQ PUSH2 0x1BB5 JUMPI DUP1 PUSH4 0x3197CBB6 EQ PUSH2 0x1B96 JUMPI DUP1 PUSH4 0x3E211AD4 EQ PUSH2 0x1B1D JUMPI DUP1 PUSH4 0x3F66F48B EQ PUSH2 0x1ABF JUMPI DUP1 PUSH4 0x4A2846A8 EQ PUSH2 0x198E JUMPI DUP1 PUSH4 0x59632C22 EQ PUSH2 0x184F JUMPI DUP1 PUSH4 0x5CA39016 EQ PUSH2 0x1803 JUMPI DUP1 PUSH4 0x6C7F5767 EQ PUSH2 0x17A5 JUMPI DUP1 PUSH4 0x6DD7D8EA EQ PUSH2 0x1597 JUMPI DUP1 PUSH4 0x78E97925 EQ PUSH2 0x1578 JUMPI DUP1 PUSH4 0x7EB21B51 EQ PUSH2 0x1420 JUMPI DUP1 PUSH4 0x860D27FA EQ PUSH2 0x11E2 JUMPI DUP1 PUSH4 0x8A4C8847 EQ PUSH2 0xD70 JUMPI DUP1 PUSH4 0x8AB66A90 EQ PUSH2 0xCAD JUMPI DUP1 PUSH4 0x8DA5CB5B EQ PUSH2 0xC84 JUMPI DUP1 PUSH4 0xA15A36C7 EQ PUSH2 0xBF5 JUMPI DUP1 PUSH4 0xA3EC138D EQ PUSH2 0xB31 JUMPI DUP1 PUSH4 0xA6F9DAE1 EQ PUSH2 0xA94 JUMPI DUP1 PUSH4 0xAED93010 EQ PUSH2 0xA48 JUMPI DUP1 PUSH4 0xB181A8FC EQ PUSH2 0x7CD JUMPI DUP1 PUSH4 0xB7ADCF1D EQ PUSH2 0x714 JUMPI DUP1 PUSH4 0xBE230F04 EQ PUSH2 0x656 JUMPI DUP1 PUSH4 0xBEDDC62A EQ PUSH2 0x589 JUMPI DUP1 PUSH4 0xD3A078DA EQ PUSH2 0x498 JUMPI DUP1 PUSH4 0xD4F50F98 EQ PUSH2 0x3DC JUMPI DUP1 PUSH4 0xF927CC29 EQ PUSH2 0x351 JUMPI PUSH4 0xFAD761D3 EQ PUSH2 0x173 JUMPI PUSH1 0x0 DUP1 REVERT JUMPDEST CALLVALUE PUSH2 0x34C JUMPI PUSH2 0x181 CALLDATASIZE PUSH2 0x25DC JUMP JUMPDEST SWAP3 SWAP1 SWAP2 PUSH1 0x1 DUP1 PUSH1 0xA0 SHL SUB DUP1 SWAP4 PUSH2 0x19C DUP3 PUSH1 0x0 SLOAD AND CALLER EQ PUSH2 0x2857 JUMP JUMPDEST AND SWAP4 DUP5 PUSH1 0x0 MSTORE PUSH2 0x1BA PUSH1 0x20 SWAP3 PUSH1 0x5 DUP5 MSTORE PUSH1 0x0 KECCAK256 SWAP5 DUP6 SLOAD AND ISZERO ISZERO PUSH2 0x28AE JUMP JUMPDEST PUSH1 0x5 DUP4 DUP6 ADD SWAP5 PUSH1 0x1 SWAP6 DUP7 PUSH1 0xFF NOT DUP3 SLOAD AND OR SWAP1 SSTORE ADD SWAP2 DUP2 MLOAD SWAP2 PUSH1 0x1 PUSH1 0x1 PUSH1 0x40 SHL SUB DUP4 GT PUSH2 0x337 JUMPI SWAP1 DUP3 SWAP2 PUSH2 0x1ED DUP6 SLOAD PUSH2 0x267D JUMP JUMPDEST PUSH1 0x1F DUP2 GT PUSH2 0x2FC JUMPI JUMPDEST POP DUP2 PUSH1 0x1F DUP5 GT PUSH1 0x1 EQ PUSH2 0x296 JUMPI POP PUSH1 0x0 SWAP3 PUSH2 0x28B JUMPI JUMPDEST POP POP PUSH1 0x0 NOT PUSH1 0x3 DUP4 SWAP1 SHL SHR NOT AND SWAP1 DUP5 SHL OR SWAP1 SSTORE JUMPDEST PUSH1 0x9 SLOAD SWAP2 PUSH1 0x1 PUSH1 0x40 SHL DUP4 LT ISZERO PUSH2 0x276 JUMPI DUP3 ADD DUP1 PUSH1 0x9 SSTORE DUP3 LT ISZERO PUSH2 0x261 JUMPI POP PUSH1 0x0 DUP1 MLOAD PUSH1 0x20 PUSH2 0x2B12 DUP4 CODECOPY DUP2 MLOAD SWAP2 MSTORE ADD DUP1 SLOAD PUSH1 0x1 PUSH1 0x1 PUSH1 0xA0 SHL SUB NOT AND SWAP1 SWAP2 OR SWAP1 SSTORE STOP JUMPDEST PUSH1 0x32 SWAP1 PUSH4 0x4E487B71 PUSH1 0xE0 SHL PUSH1 0x0 MSTORE MSTORE PUSH1 0x24 PUSH1 0x0 REVERT JUMPDEST PUSH1 0x41 DUP3 PUSH4 0x4E487B71 PUSH1 0xE0 SHL PUSH1 0x0 MSTORE MSTORE PUSH1 0x24 PUSH1 0x0 REVERT JUMPDEST ADD MLOAD SWAP1 POP CODESIZE DUP1 PUSH2 0x20C JUMP JUMPDEST SWAP2 SWAP1 DUP8 SWAP5 POP PUSH1 0x1F NOT DUP5 AND DUP7 PUSH1 0x0 MSTORE DUP4 PUSH1 0x0 KECCAK256 SWAP4 PUSH1 0x0 SWAP1 JUMPDEST DUP3 DUP3 LT PUSH2 0x2E3 JUMPI POP POP DUP5 GT PUSH2 0x2CA JUMPI JUMPDEST POP POP POP DUP2 SHL ADD SWAP1 SSTORE PUSH2 0x220 JUMP JUMPDEST ADD MLOAD PUSH1 0x0 NOT PUSH1 0xF8 DUP5 PUSH1 0x3 SHL AND SHR NOT AND SWAP1 SSTORE CODESIZE DUP1 DUP1 PUSH2 0x2BD JUMP JUMPDEST DUP5 DUP5 ADD MLOAD DUP7 SSTORE DUP11 SWAP8 SWAP1 SWAP6 ADD SWAP5 SWAP4 DUP5 ADD SWAP4 SWAP1 DUP2 ADD SWAP1 PUSH2 0x2AD JUMP JUMPDEST PUSH2 0x327 SWAP1 DUP7 PUSH1 0x0 MSTORE DUP4 PUSH1 0x0 KECCAK256 PUSH1 0x1F DUP7 ADD PUSH1 0x5 SHR DUP2 ADD SWAP2 DUP6 DUP8 LT PUSH2 0x32D JUMPI JUMPDEST PUSH1 0x1F ADD PUSH1 0x5 SHR ADD SWAP1 PUSH2 0x27C1 JUMP JUMPDEST CODESIZE PUSH2 0x1F6 JUMP JUMPDEST SWAP1 SWAP2 POP DUP2 SWAP1 PUSH2 0x31A JUMP JUMPDEST PUSH1 0x41 DUP6 PUSH4 0x4E487B71 PUSH1 0xE0 SHL PUSH1 0x0 MSTORE MSTORE PUSH1 0x24 PUSH1 0x0 REVERT JUMPDEST PUSH1 0x0 DUP1 REVERT JUMPDEST POP SWAP1 CALLVALUE PUSH2 0x34C JUMPI PUSH1 0x0 CALLDATASIZE PUSH1 0x3 NOT ADD SLT PUSH2 0x34C JUMPI PUSH2 0x36C PUSH2 0x2947 JUMP JUMPDEST POP PUSH1 0x2 SLOAD TIMESTAMP GT ISZERO PUSH2 0x39A JUMPI PUSH2 0x396 DUP3 PUSH2 0x383 PUSH2 0x2A31 JUMP JUMPDEST SWAP1 MLOAD SWAP2 DUP3 SWAP2 PUSH1 0x20 DUP4 MSTORE PUSH1 0x20 DUP4 ADD SWAP1 PUSH2 0x22DD JUMP JUMPDEST SUB SWAP1 RETURN JUMPDEST PUSH1 0x20 PUSH1 0x64 SWAP3 MLOAD SWAP2 PUSH3 0x461BCD PUSH1 0xE5 SHL DUP4 MSTORE DUP3 ADD MSTORE PUSH1 0x1E PUSH1 0x24 DUP3 ADD MSTORE PUSH32 0x566F74696E6720706572696F64206973206E6F74206F766572207965742E0000 PUSH1 0x44 DUP3 ADD MSTORE REVERT JUMPDEST POP SWAP1 CALLVALUE PUSH2 0x34C JUMPI PUSH1 0x20 CALLDATASIZE PUSH1 0x3 NOT ADD SLT PUSH2 0x34C JUMPI PUSH2 0x396 SWAP2 PUSH2 0x481 PUSH1 0x5 PUSH2 0x400 PUSH2 0x25C6 JUMP JUMPDEST SWAP4 PUSH2 0x409 PUSH2 0x2947 JUMP JUMPDEST POP PUSH1 0x1 DUP1 PUSH1 0xA0 SHL SUB DUP1 SWAP6 AND PUSH1 0x0 MSTORE DUP2 PUSH1 0x20 MSTORE PUSH1 0xFF DUP5 PUSH1 0x0 KECCAK256 SWAP2 DUP6 MLOAD SWAP7 PUSH2 0x42E DUP9 PUSH2 0x2357 JUMP JUMPDEST DUP4 SLOAD AND DUP8 MSTORE PUSH2 0x43F PUSH1 0x1 DUP5 ADD PUSH2 0x26B7 JUMP JUMPDEST PUSH1 0x20 DUP9 ADD MSTORE PUSH2 0x450 PUSH1 0x2 DUP5 ADD PUSH2 0x26B7 JUMP JUMPDEST DUP7 DUP9 ADD MSTORE PUSH1 0x3 DUP4 ADD SLOAD PUSH1 0x60 DUP9 ADD MSTORE DUP3 ADD SLOAD PUSH2 0x470 DUP3 DUP3 AND PUSH1 0x80 DUP10 ADD PUSH2 0x275D JUMP JUMPDEST PUSH1 0x8 SHR AND ISZERO ISZERO PUSH1 0xA0 DUP7 ADD MSTORE ADD PUSH2 0x26B7 JUMP JUMPDEST PUSH1 0xC0 DUP4 ADD MSTORE MLOAD SWAP2 DUP3 SWAP2 PUSH1 0x20 DUP4 MSTORE PUSH1 0x20 DUP4 ADD SWAP1 PUSH2 0x24FD JUMP JUMPDEST POP CALLVALUE PUSH2 0x34C JUMPI PUSH1 0x0 CALLDATASIZE PUSH1 0x3 NOT ADD SLT PUSH2 0x34C JUMPI PUSH1 0x7 SLOAD SWAP1 PUSH2 0x4B7 DUP3 PUSH2 0x2981 JUMP JUMPDEST SWAP2 PUSH1 0x0 JUMPDEST DUP2 DUP2 LT PUSH2 0x4CF JUMPI DUP3 MLOAD DUP1 PUSH2 0x396 DUP7 DUP3 PUSH2 0x2564 JUMP JUMPDEST DUP1 PUSH2 0x564 PUSH2 0x4DF PUSH2 0x584 SWAP4 PUSH2 0x248F JUMP JUMPDEST PUSH1 0x1 DUP1 PUSH1 0xA0 SWAP5 SWAP4 SWAP5 SHL SUB DUP1 SWAP4 SLOAD PUSH1 0x3 SWAP3 DUP4 SHL SHR AND PUSH1 0x0 MSTORE PUSH1 0x5 SWAP1 PUSH1 0x20 SWAP1 DUP3 DUP3 MSTORE DUP9 PUSH1 0x0 KECCAK256 SWAP2 DUP10 MLOAD SWAP6 PUSH2 0x510 DUP8 PUSH2 0x2357 JUMP JUMPDEST DUP4 SLOAD AND DUP7 MSTORE PUSH2 0x521 PUSH1 0x1 DUP5 ADD PUSH2 0x26B7 JUMP JUMPDEST SWAP1 DUP7 ADD MSTORE PUSH2 0x531 PUSH1 0x2 DUP4 ADD PUSH2 0x26B7 JUMP JUMPDEST DUP10 DUP7 ADD MSTORE DUP2 ADD SLOAD PUSH1 0x60 DUP6 ADD MSTORE DUP10 DUP2 ADD SLOAD PUSH1 0xFF SWAP1 PUSH2 0x553 DUP3 DUP3 AND PUSH1 0x80 DUP9 ADD PUSH2 0x275D JUMP JUMPDEST PUSH1 0x8 SHR AND ISZERO ISZERO PUSH1 0xA0 DUP6 ADD MSTORE ADD PUSH2 0x26B7 JUMP JUMPDEST PUSH1 0xC0 DUP3 ADD MSTORE PUSH2 0x573 DUP3 DUP8 PUSH2 0x29D1 JUMP JUMPDEST MSTORE PUSH2 0x57E DUP2 DUP7 PUSH2 0x29D1 JUMP JUMPDEST POP PUSH2 0x2832 JUMP JUMPDEST PUSH2 0x4BB JUMP JUMPDEST POP CALLVALUE PUSH2 0x34C JUMPI PUSH1 0x0 CALLDATASIZE PUSH1 0x3 NOT ADD SLT PUSH2 0x34C JUMPI PUSH1 0xA SLOAD SWAP1 PUSH2 0x5A8 DUP3 PUSH2 0x2981 JUMP JUMPDEST SWAP2 PUSH1 0x0 JUMPDEST DUP2 DUP2 LT PUSH2 0x5C0 JUMPI DUP3 MLOAD DUP1 PUSH2 0x396 DUP7 DUP3 PUSH2 0x261B JUMP JUMPDEST DUP1 PUSH2 0x564 PUSH2 0x5D0 PUSH2 0x651 SWAP4 PUSH2 0x24C6 JUMP JUMPDEST PUSH1 0x1 DUP1 PUSH1 0xA0 SWAP5 SWAP4 SWAP5 SHL SUB DUP1 SWAP4 SLOAD PUSH1 0x3 SWAP3 DUP4 SHL SHR AND PUSH1 0x0 MSTORE PUSH1 0x6 SWAP1 PUSH1 0x20 SWAP1 DUP3 DUP3 MSTORE DUP9 PUSH1 0x0 KECCAK256 SWAP2 DUP10 MLOAD SWAP6 PUSH2 0x601 DUP8 PUSH2 0x2357 JUMP JUMPDEST DUP4 SLOAD AND DUP7 MSTORE PUSH2 0x612 PUSH1 0x1 DUP5 ADD PUSH2 0x26B7 JUMP JUMPDEST SWAP1 DUP7 ADD MSTORE PUSH2 0x622 PUSH1 0x2 DUP4 ADD PUSH2 0x26B7 JUMP JUMPDEST DUP10 DUP7 ADD MSTORE DUP2 ADD SLOAD PUSH1 0x60 DUP6 ADD MSTORE PUSH2 0x641 PUSH1 0xFF DUP12 DUP4 ADD SLOAD AND PUSH1 0x80 DUP7 ADD PUSH2 0x275D JUMP JUMPDEST PUSH1 0x5 DUP2 ADD SLOAD PUSH1 0xA0 DUP6 ADD MSTORE ADD PUSH2 0x26B7 JUMP JUMPDEST PUSH2 0x5AC JUMP JUMPDEST POP CALLVALUE PUSH2 0x34C JUMPI PUSH1 0x0 CALLDATASIZE PUSH1 0x3 NOT ADD SLT PUSH2 0x34C JUMPI PUSH1 0x9 SLOAD SWAP1 PUSH2 0x675 DUP3 PUSH2 0x2981 JUMP JUMPDEST SWAP2 PUSH1 0x0 JUMPDEST DUP2 DUP2 LT PUSH2 0x68D JUMPI DUP3 MLOAD DUP1 PUSH2 0x396 DUP7 DUP3 PUSH2 0x2564 JUMP JUMPDEST PUSH2 0x70F SWAP1 PUSH1 0x1 DUP1 PUSH1 0xA0 SHL SUB DUP1 DUP3 PUSH1 0x0 DUP1 MLOAD PUSH1 0x20 PUSH2 0x2B12 DUP4 CODECOPY DUP2 MLOAD SWAP2 MSTORE ADD SLOAD AND PUSH1 0x0 MSTORE PUSH2 0x564 PUSH1 0x5 PUSH1 0x20 DUP2 DUP2 MSTORE DUP8 PUSH1 0x0 KECCAK256 SWAP1 DUP9 MLOAD SWAP5 PUSH2 0x6CA DUP7 PUSH2 0x2357 JUMP JUMPDEST DUP3 SLOAD AND DUP6 MSTORE PUSH2 0x6DB PUSH1 0x1 DUP4 ADD PUSH2 0x26B7 JUMP JUMPDEST SWAP1 DUP6 ADD MSTORE PUSH2 0x6EB PUSH1 0x2 DUP3 ADD PUSH2 0x26B7 JUMP JUMPDEST DUP9 DUP6 ADD MSTORE PUSH1 0x3 DUP2 ADD SLOAD PUSH1 0x60 DUP6 ADD MSTORE DUP10 DUP2 ADD SLOAD PUSH1 0xFF SWAP1 PUSH2 0x553 DUP3 DUP3 AND PUSH1 0x80 DUP9 ADD PUSH2 0x275D JUMP JUMPDEST PUSH2 0x679 JUMP JUMPDEST POP SWAP1 CALLVALUE PUSH2 0x34C JUMPI PUSH1 0x20 CALLDATASIZE PUSH1 0x3 NOT ADD SLT PUSH2 0x34C JUMPI PUSH2 0x396 SWAP2 PUSH2 0x7B6 PUSH1 0x6 PUSH2 0x738 PUSH2 0x25C6 JUMP JUMPDEST SWAP4 PUSH2 0x741 PUSH2 0x2947 JUMP JUMPDEST POP PUSH1 0x1 DUP1 PUSH1 0xA0 SHL SUB DUP1 SWAP6 AND PUSH1 0x0 MSTORE DUP2 PUSH1 0x20 MSTORE PUSH2 0x7A6 PUSH1 0xFF DUP6 PUSH1 0x0 KECCAK256 SWAP3 DUP7 MLOAD SWAP8 PUSH2 0x769 DUP10 PUSH2 0x2357 JUMP JUMPDEST DUP5 SLOAD AND DUP9 MSTORE PUSH2 0x77A PUSH1 0x1 DUP6 ADD PUSH2 0x26B7 JUMP JUMPDEST PUSH1 0x20 DUP10 ADD MSTORE PUSH2 0x78B PUSH1 0x2 DUP6 ADD PUSH2 0x26B7 JUMP JUMPDEST DUP8 DUP10 ADD MSTORE PUSH1 0x3 DUP5 ADD SLOAD PUSH1 0x60 DUP10 ADD MSTORE DUP4 ADD SLOAD AND PUSH1 0x80 DUP8 ADD PUSH2 0x275D JUMP JUMPDEST PUSH1 0x5 DUP2 ADD SLOAD PUSH1 0xA0 DUP7 ADD MSTORE ADD PUSH2 0x26B7 JUMP JUMPDEST PUSH1 0xC0 DUP4 ADD MSTORE MLOAD SWAP2 DUP3 SWAP2 PUSH1 0x20 DUP4 MSTORE PUSH1 0x20 DUP4 ADD SWAP1 PUSH2 0x22DD JUMP JUMPDEST POP CALLVALUE PUSH2 0x34C JUMPI PUSH1 0x0 CALLDATASIZE PUSH1 0x3 NOT ADD SLT PUSH2 0x34C JUMPI PUSH1 0x0 SLOAD PUSH1 0x1 PUSH1 0x1 PUSH1 0xA0 SHL SUB SWAP2 SWAP1 PUSH2 0x7F9 SWAP1 DUP4 AND CALLER EQ PUSH2 0x2857 JUMP JUMPDEST PUSH1 0x0 JUMPDEST PUSH1 0x7 SLOAD DUP2 LT ISZERO PUSH2 0x865 JUMPI DUP1 PUSH2 0x85B DUP5 PUSH2 0x817 PUSH2 0x860 SWAP5 PUSH2 0x248F JUMP JUMPDEST SWAP2 SWAP1 SLOAD PUSH1 0x3 SWAP3 DUP4 SHL SHR AND PUSH1 0x0 MSTORE PUSH1 0x5 SWAP1 DUP2 PUSH1 0x20 MSTORE PUSH1 0x0 DUP7 DUP2 KECCAK256 SWAP2 DUP2 DUP4 SSTORE PUSH2 0x840 PUSH1 0x1 DUP5 ADD PUSH2 0x29E5 JUMP JUMPDEST PUSH2 0x84C PUSH1 0x2 DUP5 ADD PUSH2 0x29E5 JUMP JUMPDEST DUP3 ADD SSTORE PUSH1 0x0 DUP9 DUP3 ADD SSTORE ADD PUSH2 0x29E5 JUMP JUMPDEST PUSH2 0x2832 JUMP JUMPDEST PUSH2 0x7FC JUMP JUMPDEST POP PUSH1 0x0 JUMPDEST PUSH1 0x8 SLOAD DUP2 LT ISZERO PUSH2 0x8D4 JUMPI DUP1 PUSH2 0x85B DUP5 PUSH2 0x884 PUSH2 0x8CF SWAP5 PUSH2 0x2442 JUMP JUMPDEST SWAP2 SWAP1 SLOAD PUSH1 0x3 SWAP3 DUP4 SHL SHR AND PUSH1 0x0 MSTORE PUSH1 0x6 SWAP1 DUP2 PUSH1 0x20 MSTORE PUSH1 0x0 DUP7 DUP2 KECCAK256 SWAP2 DUP2 DUP4 SSTORE PUSH2 0x8AD PUSH1 0x1 DUP5 ADD PUSH2 0x29E5 JUMP JUMPDEST PUSH2 0x8B9 PUSH1 0x2 DUP5 ADD PUSH2 0x29E5 JUMP JUMPDEST DUP3 ADD SSTORE PUSH1 0x0 DUP9 DUP3 ADD SSTORE PUSH1 0x0 PUSH1 0x5 DUP3 ADD SSTORE ADD PUSH2 0x29E5 JUMP JUMPDEST PUSH2 0x869 JUMP JUMPDEST PUSH1 0x1 DUP5 PUSH1 0x7 SLOAD PUSH1 0x0 PUSH1 0x7 SSTORE DUP1 PUSH2 0xA0A JUMPI JUMPDEST POP PUSH1 0x8 SLOAD PUSH1 0x0 PUSH1 0x8 SSTORE DUP1 PUSH2 0x9CC JUMPI JUMPDEST POP PUSH1 0x9 SLOAD PUSH1 0x0 PUSH1 0x9 SSTORE DUP1 PUSH2 0x9A0 JUMPI JUMPDEST POP PUSH1 0xA SLOAD PUSH1 0x0 PUSH1 0xA SSTORE DUP1 PUSH2 0x962 JUMPI JUMPDEST POP PUSH1 0xB SLOAD PUSH1 0x0 PUSH1 0xB SSTORE DUP1 PUSH2 0x936 JUMPI JUMPDEST POP DUP2 PUSH1 0x3 SSTORE SSTORE PUSH1 0x0 PUSH1 0x1 SSTORE PUSH1 0x0 PUSH1 0x2 SSTORE PUSH1 0x0 DUP1 RETURN JUMPDEST PUSH1 0x0 DUP1 MLOAD PUSH1 0x20 PUSH2 0x2B32 DUP4 CODECOPY DUP2 MLOAD SWAP2 MSTORE SWAP1 DUP2 ADD SWAP1 JUMPDEST DUP2 DUP2 LT PUSH2 0x957 JUMPI POP PUSH2 0x921 JUMP JUMPDEST PUSH1 0x0 DUP2 SSTORE DUP4 ADD PUSH2 0x94A JUMP JUMPDEST PUSH32 0xC65A7BB8D6351C1CF70C95A316CC6A92839C986682D98BC35F958F4883F9D2A8 SWAP1 DUP2 ADD SWAP1 JUMPDEST DUP2 DUP2 LT PUSH2 0x995 JUMPI POP PUSH2 0x912 JUMP JUMPDEST PUSH1 0x0 DUP2 SSTORE DUP4 ADD PUSH2 0x988 JUMP JUMPDEST PUSH1 0x0 DUP1 MLOAD PUSH1 0x20 PUSH2 0x2B12 DUP4 CODECOPY DUP2 MLOAD SWAP2 MSTORE SWAP1 DUP2 ADD SWAP1 JUMPDEST DUP2 DUP2 LT PUSH2 0x9C1 JUMPI POP PUSH2 0x903 JUMP JUMPDEST PUSH1 0x0 DUP2 SSTORE DUP4 ADD PUSH2 0x9B4 JUMP JUMPDEST PUSH32 0xF3F7A9FE364FAAB93B216DA50A3214154F22A0A2B415B23A84C8169E8B636EE3 SWAP1 DUP2 ADD SWAP1 JUMPDEST DUP2 DUP2 LT PUSH2 0x9FF JUMPI POP PUSH2 0x8F4 JUMP JUMPDEST PUSH1 0x0 DUP2 SSTORE DUP4 ADD PUSH2 0x9F2 JUMP JUMPDEST PUSH32 0xA66CC928B5EDB82AF9BD49922954155AB7B0942694BEA4CE44661D9A8736C688 SWAP1 DUP2 ADD SWAP1 JUMPDEST DUP2 DUP2 LT PUSH2 0xA3D JUMPI POP PUSH2 0x8E5 JUMP JUMPDEST PUSH1 0x0 DUP2 SSTORE DUP4 ADD PUSH2 0xA30 JUMP JUMPDEST POP SWAP1 CALLVALUE PUSH2 0x34C JUMPI PUSH1 0x20 CALLDATASIZE PUSH1 0x3 NOT ADD SLT PUSH2 0x34C JUMPI CALLDATALOAD SWAP1 PUSH1 0x9 SLOAD DUP3 LT ISZERO PUSH2 0x34C JUMPI PUSH1 0x9 PUSH1 0x0 MSTORE PUSH1 0x0 DUP1 MLOAD PUSH1 0x20 PUSH2 0x2B12 DUP4 CODECOPY DUP2 MLOAD SWAP2 MSTORE SWAP1 SWAP2 ADD SLOAD SWAP1 MLOAD PUSH1 0x1 PUSH1 0x1 PUSH1 0xA0 SHL SUB SWAP2 SWAP1 SWAP2 AND DUP2 MSTORE PUSH1 0x20 SWAP1 RETURN JUMPDEST POP SWAP1 CALLVALUE PUSH2 0x34C JUMPI PUSH1 0x20 CALLDATASIZE PUSH1 0x3 NOT ADD SLT PUSH2 0x34C JUMPI PUSH2 0xAAF PUSH2 0x25C6 JUMP JUMPDEST PUSH1 0x0 SLOAD SWAP2 SWAP1 PUSH1 0x1 PUSH1 0x1 PUSH1 0xA0 SHL SUB SWAP1 PUSH2 0xACA CALLER DUP4 DUP7 AND EQ PUSH2 0x2857 JUMP JUMPDEST AND SWAP3 DUP4 ISZERO PUSH2 0xAE4 JUMPI POP POP PUSH1 0x1 PUSH1 0x1 PUSH1 0xA0 SHL SUB NOT AND OR PUSH1 0x0 SSTORE STOP JUMPDEST SWAP1 PUSH1 0x20 PUSH1 0x84 SWAP3 MLOAD SWAP2 PUSH3 0x461BCD PUSH1 0xE5 SHL DUP4 MSTORE DUP3 ADD MSTORE PUSH1 0x21 PUSH1 0x24 DUP3 ADD MSTORE PUSH32 0x4E6577206F776E657220616464726573732063616E6E6F74206265207A65726F PUSH1 0x44 DUP3 ADD MSTORE PUSH1 0x17 PUSH1 0xF9 SHL PUSH1 0x64 DUP3 ADD MSTORE REVERT JUMPDEST POP CALLVALUE PUSH2 0x34C JUMPI PUSH1 0x20 CALLDATASIZE PUSH1 0x3 NOT ADD SLT PUSH2 0x34C JUMPI PUSH1 0x1 PUSH1 0x1 PUSH1 0xA0 SHL SUB SWAP2 PUSH2 0x396 SWAP1 DUP4 PUSH2 0xB59 PUSH2 0x25C6 JUMP JUMPDEST AND PUSH1 0x0 MSTORE PUSH1 0x5 PUSH1 0x20 MSTORE DUP3 PUSH1 0x0 KECCAK256 SWAP4 DUP5 SLOAD AND SWAP3 PUSH1 0xFF PUSH2 0xB79 PUSH1 0x1 DUP8 ADD PUSH2 0x26B7 JUMP JUMPDEST SWAP6 PUSH2 0xBC8 PUSH2 0xB89 PUSH1 0x2 DUP4 ADD PUSH2 0x26B7 JUMP JUMPDEST SWAP4 PUSH2 0xB9F PUSH1 0x5 PUSH1 0x3 DUP6 ADD SLOAD SWAP8 DUP6 ADD SLOAD SWAP5 ADD PUSH2 0x26B7 JUMP JUMPDEST SWAP5 PUSH2 0xBBB DUP3 MLOAD SWAP11 DUP12 SWAP11 DUP12 MSTORE PUSH1 0xE0 PUSH1 0x20 DUP13 ADD MSTORE PUSH1 0xE0 DUP12 ADD SWAP1 PUSH2 0x227A JUMP JUMPDEST SWAP2 DUP10 DUP4 SUB SWAP1 DUP11 ADD MSTORE PUSH2 0x227A JUMP JUMPDEST SWAP4 PUSH1 0x60 DUP8 ADD MSTORE PUSH2 0xBDD PUSH1 0x80 DUP8 ADD DUP4 DUP4 AND PUSH2 0x22BA JUMP JUMPDEST PUSH1 0x8 SHR AND ISZERO ISZERO PUSH1 0xA0 DUP6 ADD MSTORE DUP4 DUP3 SUB PUSH1 0xC0 DUP6 ADD MSTORE PUSH2 0x227A JUMP JUMPDEST POP SWAP1 CALLVALUE PUSH2 0x34C JUMPI DUP2 PUSH1 0x3 NOT CALLDATASIZE ADD SLT PUSH2 0x34C JUMPI DUP1 CALLDATALOAD SWAP1 PUSH1 0x24 CALLDATALOAD SWAP3 PUSH2 0xC23 PUSH1 0x1 DUP1 PUSH1 0xA0 SHL SUB PUSH1 0x0 SLOAD AND CALLER EQ PUSH2 0x2857 JUMP JUMPDEST DUP4 DUP4 LT ISZERO PUSH2 0xC35 JUMPI POP POP PUSH1 0x1 SSTORE PUSH1 0x2 SSTORE STOP JUMPDEST SWAP1 PUSH1 0x20 PUSH1 0x84 SWAP3 MLOAD SWAP2 PUSH3 0x461BCD PUSH1 0xE5 SHL DUP4 MSTORE DUP3 ADD MSTORE PUSH1 0x23 PUSH1 0x24 DUP3 ADD MSTORE PUSH32 0x53746172742074696D65206D757374206265206265666F726520656E64207469 PUSH1 0x44 DUP3 ADD MSTORE PUSH3 0x36B297 PUSH1 0xE9 SHL PUSH1 0x64 DUP3 ADD MSTORE REVERT JUMPDEST POP CALLVALUE PUSH2 0x34C JUMPI PUSH1 0x0 CALLDATASIZE PUSH1 0x3 NOT ADD SLT PUSH2 0x34C JUMPI PUSH1 0x0 SLOAD SWAP1 MLOAD PUSH1 0x1 PUSH1 0x1 PUSH1 0xA0 SHL SUB SWAP1 SWAP2 AND DUP2 MSTORE PUSH1 0x20 SWAP1 RETURN JUMPDEST POP CALLVALUE PUSH2 0x34C JUMPI PUSH1 0x20 CALLDATASIZE PUSH1 0x3 NOT ADD SLT PUSH2 0x34C JUMPI PUSH1 0x1 PUSH1 0x1 PUSH1 0xA0 SHL SUB SWAP2 PUSH2 0x396 SWAP1 DUP4 PUSH2 0xCD5 PUSH2 0x25C6 JUMP JUMPDEST AND PUSH1 0x0 MSTORE PUSH1 0x6 PUSH1 0x20 MSTORE DUP3 PUSH1 0x0 KECCAK256 SWAP4 DUP5 SLOAD AND SWAP3 PUSH2 0xCF3 PUSH1 0x1 DUP7 ADD PUSH2 0x26B7 JUMP JUMPDEST SWAP5 PUSH2 0xD5E PUSH2 0xD03 PUSH1 0x2 DUP4 ADD PUSH2 0x26B7 JUMP JUMPDEST SWAP3 PUSH2 0xD4E PUSH1 0xFF PUSH1 0x3 DUP6 ADD SLOAD SWAP7 DUP6 ADD SLOAD AND SWAP2 PUSH2 0xD25 PUSH1 0x6 PUSH1 0x5 DUP8 ADD SLOAD SWAP7 ADD PUSH2 0x26B7 JUMP JUMPDEST SWAP6 PUSH2 0xD41 DUP3 MLOAD SWAP12 DUP13 SWAP12 DUP13 MSTORE PUSH1 0xE0 PUSH1 0x20 DUP14 ADD MSTORE PUSH1 0xE0 DUP13 ADD SWAP1 PUSH2 0x227A JUMP JUMPDEST SWAP2 DUP11 DUP4 SUB SWAP1 DUP12 ADD MSTORE PUSH2 0x227A JUMP JUMPDEST SWAP5 PUSH1 0x60 DUP9 ADD MSTORE PUSH1 0x80 DUP8 ADD SWAP1 PUSH2 0x22BA JUMP JUMPDEST PUSH1 0xA0 DUP6 ADD MSTORE DUP4 DUP3 SUB PUSH1 0xC0 DUP6 ADD MSTORE PUSH2 0x227A JUMP JUMPDEST POP SWAP1 CALLVALUE PUSH2 0x34C JUMPI PUSH2 0xD80 CALLDATASIZE PUSH2 0x23FF JUMP JUMPDEST SWAP2 SWAP1 SWAP3 PUSH1 0x3 SLOAD DUP2 MLOAD SWAP4 PUSH2 0xD92 DUP6 PUSH2 0x2357 JUMP JUMPDEST CALLER DUP6 MSTORE PUSH1 0x20 DUP6 ADD SWAP6 DUP7 MSTORE DUP3 DUP6 ADD MSTORE PUSH1 0x60 DUP5 ADD MSTORE PUSH1 0x0 PUSH1 0x80 DUP5 ADD MSTORE PUSH1 0x0 PUSH1 0xA0 DUP5 ADD MSTORE PUSH2 0xDBB PUSH2 0x2769 JUMP JUMPDEST PUSH1 0xC0 DUP5 ADD MSTORE CALLER PUSH1 0x0 SWAP1 DUP2 MSTORE PUSH1 0x5 PUSH1 0x20 MSTORE DUP2 SWAP1 KECCAK256 DUP4 MLOAD DUP2 SLOAD PUSH1 0x1 PUSH1 0x1 PUSH1 0xA0 SHL SUB NOT AND PUSH1 0x1 PUSH1 0x1 PUSH1 0xA0 SHL SUB SWAP2 SWAP1 SWAP2 AND OR DUP2 SSTORE SWAP4 MLOAD DUP1 MLOAD SWAP1 PUSH1 0x1 PUSH1 0x1 PUSH1 0x40 SHL SUB DUP3 GT PUSH2 0x11CD JUMPI DUP2 SWAP1 PUSH2 0xE0D PUSH1 0x1 DUP9 ADD SLOAD PUSH2 0x267D JUMP JUMPDEST PUSH1 0x1F DUP2 GT PUSH2 0x1198 JUMPI JUMPDEST POP PUSH1 0x20 SWAP1 PUSH1 0x1F DUP4 GT PUSH1 0x1 EQ PUSH2 0x1126 JUMPI PUSH1 0x0 SWAP3 PUSH2 0x111B JUMPI JUMPDEST POP POP DUP2 PUSH1 0x1 SHL SWAP2 PUSH1 0x0 NOT SWAP1 PUSH1 0x3 SHL SHR NOT AND OR PUSH1 0x1 DUP6 ADD SSTORE JUMPDEST DUP3 ADD MLOAD SWAP3 DUP4 MLOAD PUSH1 0x1 PUSH1 0x1 PUSH1 0x40 SHL SUB DUP2 GT PUSH2 0x1042 JUMPI PUSH2 0xE66 PUSH1 0x2 DUP4 ADD SLOAD PUSH2 0x267D JUMP JUMPDEST PUSH1 0x1F DUP2 GT PUSH2 0x10E6 JUMPI JUMPDEST POP PUSH1 0x20 PUSH1 0x1F DUP3 GT PUSH1 0x1 EQ PUSH2 0x1077 JUMPI DUP2 SWAP3 SWAP4 SWAP5 SWAP6 PUSH1 0x0 SWAP3 PUSH2 0x106C JUMPI JUMPDEST POP POP DUP2 PUSH1 0x1 SHL SWAP2 PUSH1 0x0 NOT SWAP1 PUSH1 0x3 SHL SHR NOT AND OR PUSH1 0x2 DUP3 ADD SSTORE JUMPDEST PUSH1 0x60 DUP4 ADD MLOAD PUSH1 0x3 DUP3 ADD SSTORE DUP2 DUP2 ADD PUSH1 0x80 DUP5 ADD MLOAD PUSH1 0x3 DUP2 LT ISZERO PUSH2 0x1057 JUMPI SWAP2 DUP2 PUSH2 0xECD PUSH1 0xC0 SWAP5 PUSH1 0x5 SWAP5 PUSH2 0x27D8 JUMP JUMPDEST PUSH1 0xA0 DUP7 ADD MLOAD ISZERO ISZERO PUSH2 0xFF00 DUP3 SLOAD SWAP2 PUSH1 0x8 SHL AND SWAP1 PUSH2 0xFF00 NOT AND OR SWAP1 SSTORE ADD SWAP3 ADD MLOAD SWAP2 DUP3 MLOAD PUSH1 0x1 PUSH1 0x1 PUSH1 0x40 SHL SUB DUP2 GT PUSH2 0x1042 JUMPI PUSH2 0xF06 DUP3 SLOAD PUSH2 0x267D JUMP JUMPDEST PUSH1 0x1F DUP2 GT PUSH2 0x1010 JUMPI JUMPDEST POP PUSH1 0x20 PUSH1 0x1F DUP3 GT PUSH1 0x1 EQ PUSH2 0xFAA JUMPI DUP2 SWAP3 SWAP4 SWAP5 PUSH1 0x0 SWAP3 PUSH2 0xF9F JUMPI JUMPDEST POP POP DUP2 PUSH1 0x1 SHL SWAP2 PUSH1 0x0 NOT SWAP1 PUSH1 0x3 SHL SHR NOT AND OR SWAP1 SSTORE JUMPDEST PUSH1 0x7 SLOAD SWAP1 PUSH1 0x1 PUSH1 0x40 SHL DUP3 LT ISZERO PUSH2 0xF8A JUMPI PUSH2 0xF5E DUP3 PUSH1 0x1 DUP2 ADD PUSH1 0x7 SSTORE PUSH2 0x248F JUMP JUMPDEST DUP2 SLOAD SWAP1 PUSH1 0x3 SHL SWAP1 PUSH1 0x1 DUP1 PUSH1 0xA0 SHL SUB DUP3 SHL DUP1 SWAP3 CALLER SWAP1 SHL AND SWAP2 NOT AND OR SWAP1 SSTORE PUSH2 0xF85 PUSH1 0x3 SLOAD PUSH2 0x2832 JUMP JUMPDEST PUSH1 0x3 SSTORE STOP JUMPDEST PUSH1 0x41 SWAP1 PUSH4 0x4E487B71 PUSH1 0xE0 SHL PUSH1 0x0 MSTORE MSTORE PUSH1 0x24 PUSH1 0x0 REVERT JUMPDEST ADD MLOAD SWAP1 POP CODESIZE DUP1 PUSH2 0xF29 JUMP JUMPDEST PUSH1 0x1F NOT DUP3 AND SWAP1 DUP4 PUSH1 0x0 MSTORE PUSH1 0x20 PUSH1 0x0 KECCAK256 SWAP2 PUSH1 0x0 JUMPDEST DUP2 DUP2 LT PUSH2 0xFF8 JUMPI POP SWAP6 DUP4 PUSH1 0x1 SWAP6 SWAP7 SWAP8 LT PUSH2 0xFDF JUMPI JUMPDEST POP POP POP DUP2 SHL ADD SWAP1 SSTORE PUSH2 0xF3E JUMP JUMPDEST ADD MLOAD PUSH1 0x0 NOT PUSH1 0xF8 DUP5 PUSH1 0x3 SHL AND SHR NOT AND SWAP1 SSTORE CODESIZE DUP1 DUP1 PUSH2 0xFD2 JUMP JUMPDEST SWAP2 SWAP3 PUSH1 0x20 PUSH1 0x1 DUP2 SWAP3 DUP7 DUP12 ADD MLOAD DUP2 SSTORE ADD SWAP5 ADD SWAP3 ADD PUSH2 0xFBD JUMP JUMPDEST PUSH2 0x103C SWAP1 DUP4 PUSH1 0x0 MSTORE PUSH1 0x20 PUSH1 0x0 KECCAK256 PUSH1 0x1F DUP5 ADD PUSH1 0x5 SHR DUP2 ADD SWAP2 PUSH1 0x20 DUP6 LT PUSH2 0x32D JUMPI PUSH1 0x1F ADD PUSH1 0x5 SHR ADD SWAP1 PUSH2 0x27C1 JUMP JUMPDEST CODESIZE PUSH2 0xF0F JUMP JUMPDEST PUSH1 0x41 DUP4 PUSH4 0x4E487B71 PUSH1 0xE0 SHL PUSH1 0x0 MSTORE MSTORE PUSH1 0x24 PUSH1 0x0 REVERT JUMPDEST PUSH1 0x21 DUP5 PUSH4 0x4E487B71 PUSH1 0xE0 SHL PUSH1 0x0 MSTORE MSTORE PUSH1 0x24 PUSH1 0x0 REVERT JUMPDEST ADD MLOAD SWAP1 POP CODESIZE DUP1 PUSH2 0xE8A JUMP JUMPDEST PUSH1 0x2 DUP4 ADD PUSH1 0x0 MSTORE PUSH1 0x20 PUSH1 0x0 KECCAK256 SWAP1 PUSH1 0x0 JUMPDEST PUSH1 0x1F NOT DUP5 AND DUP2 LT PUSH2 0x10CE JUMPI POP PUSH1 0x1 SWAP4 SWAP5 SWAP6 SWAP7 DUP4 PUSH1 0x1F NOT DUP2 AND LT PUSH2 0x10B5 JUMPI JUMPDEST POP POP POP DUP2 SHL ADD PUSH1 0x2 DUP3 ADD SSTORE PUSH2 0xEA2 JUMP JUMPDEST ADD MLOAD PUSH1 0x0 NOT PUSH1 0xF8 DUP5 PUSH1 0x3 SHL AND SHR NOT AND SWAP1 SSTORE CODESIZE DUP1 DUP1 PUSH2 0x10A5 JUMP JUMPDEST SWAP1 SWAP2 PUSH1 0x20 PUSH1 0x1 DUP2 SWAP3 DUP6 DUP12 ADD MLOAD DUP2 SSTORE ADD SWAP4 ADD SWAP2 ADD PUSH2 0x1087 JUMP JUMPDEST PUSH2 0x1115 SWAP1 PUSH1 0x2 DUP5 ADD PUSH1 0x0 MSTORE PUSH1 0x20 PUSH1 0x0 KECCAK256 PUSH1 0x1F DUP5 ADD PUSH1 0x5 SHR DUP2 ADD SWAP2 PUSH1 0x20 DUP6 LT PUSH2 0x32D JUMPI PUSH1 0x1F ADD PUSH1 0x5 SHR ADD SWAP1 PUSH2 0x27C1 JUMP JUMPDEST CODESIZE PUSH2 0xE6F JUMP JUMPDEST ADD MLOAD SWAP1 POP CODESIZE DUP1 PUSH2 0xE2D JUMP JUMPDEST SWAP3 POP PUSH1 0x1 DUP8 ADD PUSH1 0x0 MSTORE PUSH1 0x20 PUSH1 0x0 KECCAK256 SWAP1 PUSH1 0x0 SWAP4 JUMPDEST PUSH1 0x1F NOT DUP5 AND DUP6 LT PUSH2 0x117D JUMPI PUSH1 0x1 SWAP5 POP DUP4 PUSH1 0x1F NOT DUP2 AND LT PUSH2 0x1164 JUMPI JUMPDEST POP POP POP DUP2 SHL ADD PUSH1 0x1 DUP6 ADD SSTORE PUSH2 0xE45 JUMP JUMPDEST ADD MLOAD PUSH1 0x0 NOT PUSH1 0xF8 DUP5 PUSH1 0x3 SHL AND SHR NOT AND SWAP1 SSTORE CODESIZE DUP1 DUP1 PUSH2 0x1154 JUMP JUMPDEST DUP2 DUP2 ADD MLOAD DUP4 SSTORE PUSH1 0x20 SWAP5 DUP6 ADD SWAP5 PUSH1 0x1 SWAP1 SWAP4 ADD SWAP3 SWAP1 SWAP2 ADD SWAP1 PUSH2 0x1139 JUMP JUMPDEST PUSH2 0x11C7 SWAP1 PUSH1 0x1 DUP10 ADD PUSH1 0x0 MSTORE PUSH1 0x20 PUSH1 0x0 KECCAK256 PUSH1 0x1F DUP6 ADD PUSH1 0x5 SHR DUP2 ADD SWAP2 PUSH1 0x20 DUP7 LT PUSH2 0x32D JUMPI PUSH1 0x1F ADD PUSH1 0x5 SHR ADD SWAP1 PUSH2 0x27C1 JUMP JUMPDEST CODESIZE PUSH2 0xE16 JUMP JUMPDEST PUSH1 0x41 DUP5 PUSH4 0x4E487B71 PUSH1 0xE0 SHL PUSH1 0x0 MSTORE MSTORE PUSH1 0x24 PUSH1 0x0 REVERT JUMPDEST POP CALLVALUE PUSH2 0x34C JUMPI PUSH2 0x11F1 CALLDATASIZE PUSH2 0x23FF JUMP JUMPDEST SWAP1 CALLER PUSH1 0x0 MSTORE PUSH1 0x20 SWAP3 PUSH1 0x5 DUP5 MSTORE PUSH1 0x0 KECCAK256 SWAP2 PUSH2 0x1215 PUSH1 0x1 DUP1 PUSH1 0xA0 SHL SUB DUP5 SLOAD AND ISZERO ISZERO PUSH2 0x28AE JUMP JUMPDEST PUSH1 0x1 SWAP4 DUP5 DUP5 ADD SWAP4 DUP4 MLOAD SWAP5 PUSH1 0x1 PUSH1 0x1 PUSH1 0x40 SHL SUB SWAP6 DUP7 DUP2 GT PUSH2 0x140B JUMPI PUSH2 0x1239 DUP3 SLOAD PUSH2 0x267D JUMP JUMPDEST SWAP6 PUSH1 0x1F SWAP7 DUP8 DUP2 GT PUSH2 0x13DD JUMPI JUMPDEST POP DUP5 SWAP1 DUP8 DUP4 GT PUSH1 0x1 EQ PUSH2 0x1375 JUMPI PUSH1 0x2 SWAP5 SWAP4 SWAP3 SWAP2 PUSH1 0x0 SWAP2 DUP4 PUSH2 0x136A JUMPI JUMPDEST POP POP PUSH1 0x0 NOT PUSH1 0x3 DUP4 SWAP1 SHL SHR NOT AND SWAP1 DUP10 SHL OR SWAP1 SSTORE JUMPDEST ADD SWAP6 DUP3 MLOAD SWAP5 DUP6 GT PUSH2 0xF8A JUMPI POP PUSH2 0x128B DUP7 SLOAD PUSH2 0x267D JUMP JUMPDEST DUP4 DUP2 GT PUSH2 0x1332 JUMPI JUMPDEST POP DUP1 SWAP3 DUP5 GT PUSH1 0x1 EQ PUSH2 0x12CF JUMPI POP SWAP3 DUP3 SWAP4 SWAP2 DUP4 SWAP3 PUSH1 0x0 SWAP5 PUSH2 0x12C4 JUMPI JUMPDEST POP POP SHL SWAP2 PUSH1 0x0 NOT SWAP1 PUSH1 0x3 SHL SHR NOT AND OR SWAP1 SSTORE PUSH1 0x0 DUP1 RETURN JUMPDEST ADD MLOAD SWAP3 POP CODESIZE DUP1 PUSH2 0x12AE JUMP JUMPDEST SWAP2 SWAP1 DUP4 PUSH1 0x1F NOT DUP2 AND DUP8 PUSH1 0x0 MSTORE DUP5 PUSH1 0x0 KECCAK256 SWAP5 PUSH1 0x0 SWAP1 JUMPDEST DUP9 DUP4 DUP4 LT PUSH2 0x1318 JUMPI POP POP POP LT PUSH2 0x12FF JUMPI JUMPDEST POP POP POP DUP2 SHL ADD SWAP1 SSTORE STOP JUMPDEST ADD MLOAD PUSH1 0x0 NOT PUSH1 0xF8 DUP5 PUSH1 0x3 SHL AND SHR NOT AND SWAP1 SSTORE CODESIZE DUP1 DUP1 PUSH2 0x12F5 JUMP JUMPDEST DUP6 DUP8 ADD MLOAD DUP9 SSTORE SWAP1 SWAP7 ADD SWAP6 SWAP5 DUP6 ADD SWAP5 DUP8 SWAP4 POP SWAP1 DUP2 ADD SWAP1 PUSH2 0x12E4 JUMP JUMPDEST PUSH2 0x135B SWAP1 DUP8 PUSH1 0x0 MSTORE DUP3 PUSH1 0x0 KECCAK256 DUP6 DUP1 DUP9 ADD PUSH1 0x5 SHR DUP3 ADD SWAP3 DUP6 DUP10 LT PUSH2 0x1361 JUMPI JUMPDEST ADD PUSH1 0x5 SHR ADD SWAP1 PUSH2 0x27C1 JUMP JUMPDEST CODESIZE PUSH2 0x1293 JUMP JUMPDEST SWAP3 POP DUP2 SWAP3 PUSH2 0x1350 JUMP JUMPDEST ADD MLOAD SWAP1 POP CODESIZE DUP1 PUSH2 0x1261 JUMP JUMPDEST SWAP4 SWAP3 SWAP2 DUP10 SWAP2 PUSH1 0x1F NOT DUP3 AND SWAP1 DUP5 PUSH1 0x0 MSTORE DUP8 PUSH1 0x0 KECCAK256 SWAP2 PUSH1 0x0 JUMPDEST DUP10 DUP3 DUP3 LT PUSH2 0x13C7 JUMPI POP POP SWAP7 DUP4 PUSH1 0x2 SWAP9 LT PUSH2 0x13AE JUMPI JUMPDEST POP POP POP DUP2 SHL ADD SWAP1 SSTORE PUSH2 0x1275 JUMP JUMPDEST ADD MLOAD PUSH1 0x0 NOT PUSH1 0xF8 DUP5 PUSH1 0x3 SHL AND SHR NOT AND SWAP1 SSTORE CODESIZE DUP1 DUP1 PUSH2 0x13A1 JUMP JUMPDEST DUP4 DUP11 ADD MLOAD DUP6 SSTORE DUP15 SWAP7 SWAP1 SWAP5 ADD SWAP4 SWAP3 DUP4 ADD SWAP3 ADD PUSH2 0x138C JUMP JUMPDEST PUSH2 0x1405 SWAP1 DUP5 PUSH1 0x0 MSTORE DUP7 PUSH1 0x0 KECCAK256 DUP10 DUP1 DUP7 ADD PUSH1 0x5 SHR DUP3 ADD SWAP3 DUP10 DUP8 LT PUSH2 0x1361 JUMPI ADD PUSH1 0x5 SHR ADD SWAP1 PUSH2 0x27C1 JUMP JUMPDEST CODESIZE PUSH2 0x1245 JUMP JUMPDEST PUSH1 0x41 DUP10 PUSH4 0x4E487B71 PUSH1 0xE0 SHL PUSH1 0x0 MSTORE MSTORE PUSH1 0x24 PUSH1 0x0 REVERT JUMPDEST POP CALLVALUE PUSH2 0x34C JUMPI PUSH2 0x142F CALLDATASIZE PUSH2 0x25DC JUMP JUMPDEST SWAP1 SWAP2 PUSH1 0x1 DUP1 PUSH1 0xA0 SHL SUB SWAP1 PUSH2 0x1448 DUP3 PUSH1 0x0 SLOAD AND CALLER EQ PUSH2 0x2857 JUMP JUMPDEST DUP2 DUP5 AND PUSH1 0x0 MSTORE PUSH2 0x1466 PUSH1 0x20 SWAP2 PUSH1 0x6 DUP4 MSTORE PUSH1 0x0 KECCAK256 SWAP3 DUP4 SLOAD AND ISZERO ISZERO PUSH2 0x28ED JUMP JUMPDEST PUSH1 0x6 DUP6 DUP4 ADD SWAP3 PUSH1 0x1 SWAP4 DUP5 PUSH1 0xFF NOT DUP3 SLOAD AND OR SWAP1 SSTORE ADD SWAP3 DUP1 MLOAD SWAP6 PUSH1 0x1 PUSH1 0x1 PUSH1 0x40 SHL SUB DUP8 GT PUSH2 0xF8A JUMPI POP PUSH2 0x1497 DUP5 SLOAD PUSH2 0x267D JUMP JUMPDEST PUSH1 0x1F DUP2 GT PUSH2 0x1548 JUMPI JUMPDEST POP DUP2 PUSH1 0x1F DUP8 GT PUSH1 0x1 EQ PUSH2 0x14E1 JUMPI POP PUSH2 0x14D4 SWAP6 SWAP3 PUSH1 0x0 SWAP3 DUP5 SWAP3 DUP4 PUSH2 0x14D6 JUMPI JUMPDEST POP POP SHL SWAP2 PUSH1 0x0 NOT SWAP1 PUSH1 0x3 SHL SHR NOT AND OR SWAP1 SSTORE PUSH2 0x27F0 JUMP JUMPDEST STOP JUMPDEST ADD MLOAD SWAP3 POP CODESIZE DUP1 PUSH2 0x14BE JUMP JUMPDEST SWAP1 SWAP6 SWAP2 PUSH1 0x1F NOT DUP4 AND SWAP7 DUP6 PUSH1 0x0 MSTORE DUP3 PUSH1 0x0 KECCAK256 SWAP3 PUSH1 0x0 SWAP1 JUMPDEST DUP10 DUP3 LT PUSH2 0x1531 JUMPI POP POP DUP4 PUSH2 0x14D4 SWAP9 LT PUSH2 0x1518 JUMPI JUMPDEST POP POP POP DUP2 SHL ADD SWAP1 SSTORE PUSH2 0x27F0 JUMP JUMPDEST ADD MLOAD PUSH1 0x0 NOT PUSH1 0xF8 DUP5 PUSH1 0x3 SHL AND SHR NOT AND SWAP1 SSTORE CODESIZE DUP1 DUP1 PUSH2 0x150B JUMP JUMPDEST DUP1 DUP8 DUP6 SWAP7 DUP3 SWAP5 SWAP7 DUP7 ADD MLOAD DUP2 SSTORE ADD SWAP6 ADD SWAP4 ADD SWAP1 PUSH2 0x14F7 JUMP JUMPDEST PUSH2 0x1572 SWAP1 DUP6 PUSH1 0x0 MSTORE DUP4 PUSH1 0x0 KECCAK256 PUSH1 0x1F DUP10 ADD PUSH1 0x5 SHR DUP2 ADD SWAP2 DUP6 DUP11 LT PUSH2 0x32D JUMPI PUSH1 0x1F ADD PUSH1 0x5 SHR ADD SWAP1 PUSH2 0x27C1 JUMP JUMPDEST CODESIZE PUSH2 0x14A0 JUMP JUMPDEST POP CALLVALUE PUSH2 0x34C JUMPI PUSH1 0x0 CALLDATASIZE PUSH1 0x3 NOT ADD SLT PUSH2 0x34C JUMPI PUSH1 0x20 SWAP1 PUSH1 0x1 SLOAD SWAP1 MLOAD SWAP1 DUP2 MSTORE RETURN JUMPDEST POP SWAP1 CALLVALUE PUSH2 0x34C JUMPI PUSH1 0x20 SWAP2 DUP3 PUSH1 0x3 NOT CALLDATASIZE ADD SLT PUSH2 0x34C JUMPI PUSH2 0x15B4 PUSH2 0x25C6 JUMP JUMPDEST SWAP3 PUSH1 0x1 SLOAD TIMESTAMP LT ISZERO DUP1 PUSH2 0x1799 JUMPI JUMPDEST ISZERO PUSH2 0x1760 JUMPI CALLER PUSH1 0x0 MSTORE PUSH1 0x5 DUP2 MSTORE DUP3 DUP3 PUSH1 0x0 KECCAK256 ADD SWAP1 DUP2 SLOAD SWAP5 PUSH1 0xFF DUP7 AND PUSH1 0x3 DUP2 LT ISZERO PUSH2 0x16C5 JUMPI PUSH1 0x1 SUB PUSH2 0x171D JUMPI PUSH1 0xFF DUP7 PUSH1 0x8 SHR AND PUSH2 0x16DA JUMPI PUSH1 0x1 DUP1 PUSH1 0xA0 SHL SUB AND PUSH1 0x0 MSTORE PUSH1 0x6 DUP2 MSTORE DUP3 PUSH1 0x0 KECCAK256 SWAP3 PUSH1 0xFF DUP6 DUP6 ADD SLOAD AND PUSH1 0x3 DUP2 LT ISZERO PUSH2 0x16C5 JUMPI PUSH1 0x1 SUB PUSH2 0x1682 JUMPI POP POP PUSH2 0x100 PUSH1 0x5 SWAP4 SWAP5 PUSH2 0xFF00 NOT AND OR SWAP1 SSTORE ADD PUSH2 0x163E DUP2 SLOAD PUSH2 0x2832 JUMP JUMPDEST SWAP1 SSTORE PUSH1 0xB SLOAD SWAP1 PUSH1 0x1 PUSH1 0x40 SHL DUP3 LT ISZERO PUSH2 0xF8A JUMPI PUSH1 0x1 DUP3 ADD DUP1 PUSH1 0xB SSTORE DUP3 LT ISZERO PUSH2 0x261 JUMPI POP PUSH1 0x0 DUP1 MLOAD PUSH1 0x20 PUSH2 0x2B32 DUP4 CODECOPY DUP2 MLOAD SWAP2 MSTORE ADD DUP1 SLOAD PUSH1 0x1 PUSH1 0x1 PUSH1 0xA0 SHL SUB NOT AND CALLER OR SWAP1 SSTORE STOP JUMPDEST MLOAD PUSH3 0x461BCD PUSH1 0xE5 SHL DUP2 MSTORE DUP1 DUP6 ADD SWAP2 SWAP1 SWAP2 MSTORE PUSH1 0x1A PUSH1 0x24 DUP3 ADD MSTORE PUSH32 0x43616E646964617465206973206E6F7420617070726F7665642E000000000000 PUSH1 0x44 DUP3 ADD MSTORE PUSH1 0x64 SWAP1 REVERT JUMPDEST PUSH1 0x21 DUP7 PUSH4 0x4E487B71 PUSH1 0xE0 SHL PUSH1 0x0 MSTORE MSTORE PUSH1 0x24 PUSH1 0x0 REVERT JUMPDEST DUP4 MLOAD PUSH3 0x461BCD PUSH1 0xE5 SHL DUP2 MSTORE DUP1 DUP7 ADD DUP4 SWAP1 MSTORE PUSH1 0x17 PUSH1 0x24 DUP3 ADD MSTORE PUSH32 0x596F75206861766520616C726561647920766F7465642E000000000000000000 PUSH1 0x44 DUP3 ADD MSTORE PUSH1 0x64 SWAP1 REVERT JUMPDEST DUP4 MLOAD PUSH3 0x461BCD PUSH1 0xE5 SHL DUP2 MSTORE DUP1 DUP7 ADD DUP4 SWAP1 MSTORE PUSH1 0x1E PUSH1 0x24 DUP3 ADD MSTORE PUSH32 0x596F7520617265206E6F7420616E20617070726F76656420766F7465722E0000 PUSH1 0x44 DUP3 ADD MSTORE PUSH1 0x64 SWAP1 REVERT JUMPDEST SWAP1 MLOAD PUSH3 0x461BCD PUSH1 0xE5 SHL DUP2 MSTORE SWAP2 DUP3 ADD MSTORE PUSH1 0x15 PUSH1 0x24 DUP3 ADD MSTORE PUSH21 0x2B37BA34B7339034B9903737BA1030B1BA34BB3297 PUSH1 0x59 SHL PUSH1 0x44 DUP3 ADD MSTORE PUSH1 0x64 SWAP1 REVERT JUMPDEST POP PUSH1 0x2 SLOAD TIMESTAMP GT ISZERO PUSH2 0x15C1 JUMP JUMPDEST POP SWAP1 CALLVALUE PUSH2 0x34C JUMPI PUSH1 0x20 CALLDATASIZE PUSH1 0x3 NOT ADD SLT PUSH2 0x34C JUMPI CALLDATALOAD SWAP1 PUSH1 0x8 SLOAD DUP3 LT ISZERO PUSH2 0x34C JUMPI PUSH1 0x8 PUSH1 0x0 MSTORE PUSH32 0xF3F7A9FE364FAAB93B216DA50A3214154F22A0A2B415B23A84C8169E8B636EE3 SWAP1 SWAP2 ADD SLOAD SWAP1 MLOAD PUSH1 0x1 PUSH1 0x1 PUSH1 0xA0 SHL SUB SWAP2 SWAP1 SWAP2 AND DUP2 MSTORE PUSH1 0x20 SWAP1 RETURN JUMPDEST POP CALLVALUE PUSH2 0x34C JUMPI PUSH1 0x0 CALLDATASIZE PUSH1 0x3 NOT ADD SLT PUSH2 0x34C JUMPI PUSH1 0x8 SLOAD SWAP1 PUSH2 0x1822 DUP3 PUSH2 0x2981 JUMP JUMPDEST SWAP2 PUSH1 0x0 JUMPDEST DUP2 DUP2 LT PUSH2 0x183A JUMPI DUP3 MLOAD DUP1 PUSH2 0x396 DUP7 DUP3 PUSH2 0x261B JUMP JUMPDEST DUP1 PUSH2 0x564 PUSH2 0x5D0 PUSH2 0x184A SWAP4 PUSH2 0x2442 JUMP JUMPDEST PUSH2 0x1826 JUMP JUMPDEST POP SWAP1 CALLVALUE PUSH2 0x34C JUMPI PUSH2 0x185F CALLDATASIZE PUSH2 0x25DC JUMP JUMPDEST SWAP3 SWAP1 SWAP2 PUSH1 0x6 PUSH1 0x1 DUP1 PUSH1 0xA0 SHL SUB PUSH2 0x187A DUP2 PUSH1 0x0 SLOAD AND CALLER EQ PUSH2 0x2857 JUMP JUMPDEST DUP1 DUP6 AND PUSH1 0x0 MSTORE PUSH2 0x1897 PUSH1 0x20 SWAP5 DUP4 DUP7 MSTORE PUSH1 0x0 KECCAK256 SWAP2 DUP3 SLOAD AND ISZERO ISZERO PUSH2 0x28ED JUMP JUMPDEST DUP3 DUP2 ADD PUSH1 0x2 PUSH1 0xFF NOT DUP3 SLOAD AND OR SWAP1 SSTORE ADD SWAP2 DUP5 MLOAD SWAP2 PUSH1 0x1 PUSH1 0x1 PUSH1 0x40 SHL SUB DUP4 GT PUSH2 0xF8A JUMPI POP PUSH2 0x18C3 DUP4 SLOAD PUSH2 0x267D JUMP JUMPDEST PUSH1 0x1F DUP2 GT PUSH2 0x195E JUMPI JUMPDEST POP DUP1 PUSH1 0x1F DUP4 GT PUSH1 0x1 EQ PUSH2 0x190C JUMPI POP DUP2 SWAP1 PUSH2 0x14D4 SWAP6 PUSH1 0x0 SWAP3 PUSH2 0x1901 JUMPI JUMPDEST POP POP DUP2 PUSH1 0x1 SHL SWAP2 PUSH1 0x0 NOT SWAP1 PUSH1 0x3 SHL SHR NOT AND OR SWAP1 SSTORE PUSH2 0x27F0 JUMP JUMPDEST ADD MLOAD SWAP1 POP CODESIZE DUP1 PUSH2 0x18E8 JUMP JUMPDEST SWAP2 SWAP5 PUSH1 0x1F NOT DUP7 AND DUP5 PUSH1 0x0 MSTORE DUP4 PUSH1 0x0 KECCAK256 SWAP4 PUSH1 0x0 SWAP1 JUMPDEST DUP3 DUP3 LT PUSH2 0x1946 JUMPI POP POP SWAP2 PUSH1 0x1 SWAP4 SWAP2 DUP8 PUSH2 0x14D4 SWAP9 SWAP5 LT PUSH2 0x1518 JUMPI POP POP POP DUP2 SHL ADD SWAP1 SSTORE PUSH2 0x27F0 JUMP JUMPDEST DUP1 PUSH1 0x1 DUP7 SWAP8 DUP3 SWAP5 SWAP8 DUP8 ADD MLOAD DUP2 SSTORE ADD SWAP7 ADD SWAP5 ADD SWAP1 PUSH2 0x1920 JUMP JUMPDEST PUSH2 0x1988 SWAP1 DUP5 PUSH1 0x0 MSTORE DUP3 PUSH1 0x0 KECCAK256 PUSH1 0x1F DUP6 ADD PUSH1 0x5 SHR DUP2 ADD SWAP2 DUP5 DUP7 LT PUSH2 0x32D JUMPI PUSH1 0x1F ADD PUSH1 0x5 SHR ADD SWAP1 PUSH2 0x27C1 JUMP JUMPDEST CODESIZE PUSH2 0x18CC JUMP JUMPDEST POP CALLVALUE PUSH2 0x34C JUMPI PUSH1 0x5 SWAP2 PUSH2 0x19A0 CALLDATASIZE PUSH2 0x25DC JUMP JUMPDEST SWAP4 SWAP1 PUSH1 0x1 DUP1 PUSH1 0xA0 SHL SUB DUP1 SWAP2 PUSH2 0x19BA DUP3 PUSH1 0x0 SLOAD AND CALLER EQ PUSH2 0x2857 JUMP JUMPDEST AND PUSH1 0x0 MSTORE PUSH2 0x19D5 PUSH1 0x20 SWAP5 DUP4 DUP7 MSTORE PUSH1 0x0 KECCAK256 SWAP2 DUP3 SLOAD AND ISZERO ISZERO PUSH2 0x28AE JUMP JUMPDEST DUP3 DUP2 ADD PUSH1 0x2 PUSH1 0xFF NOT DUP3 SLOAD AND OR SWAP1 SSTORE ADD SWAP2 DUP4 MLOAD SWAP2 PUSH1 0x1 PUSH1 0x1 PUSH1 0x40 SHL SUB DUP4 GT PUSH2 0xF8A JUMPI POP PUSH2 0x1A01 DUP4 SLOAD PUSH2 0x267D JUMP JUMPDEST PUSH1 0x1F DUP2 GT PUSH2 0x1A8F JUMPI JUMPDEST POP DUP1 PUSH1 0x1F DUP4 GT PUSH1 0x1 EQ PUSH2 0x1A46 JUMPI POP DUP2 SWAP3 SWAP4 PUSH1 0x0 SWAP3 PUSH2 0x1A3B JUMPI JUMPDEST POP POP PUSH1 0x0 NOT PUSH1 0x3 DUP4 SWAP1 SHL SHR NOT AND PUSH1 0x1 SWAP2 SWAP1 SWAP2 SHL OR SWAP1 SSTORE STOP JUMPDEST ADD MLOAD SWAP1 POP CODESIZE DUP1 PUSH2 0x1A23 JUMP JUMPDEST SWAP1 PUSH1 0x1F NOT DUP4 AND SWAP5 DUP5 PUSH1 0x0 MSTORE DUP3 PUSH1 0x0 KECCAK256 SWAP3 PUSH1 0x0 SWAP1 JUMPDEST DUP8 DUP3 LT PUSH2 0x1A77 JUMPI POP POP DUP4 PUSH1 0x1 SWAP6 SWAP7 LT PUSH2 0x12FF JUMPI POP POP POP DUP2 SHL ADD SWAP1 SSTORE STOP JUMPDEST DUP1 PUSH1 0x1 DUP6 SWAP7 DUP3 SWAP5 SWAP7 DUP7 ADD MLOAD DUP2 SSTORE ADD SWAP6 ADD SWAP4 ADD SWAP1 PUSH2 0x1A5A JUMP JUMPDEST PUSH2 0x1AB9 SWAP1 DUP5 PUSH1 0x0 MSTORE DUP3 PUSH1 0x0 KECCAK256 PUSH1 0x1F DUP6 ADD PUSH1 0x5 SHR DUP2 ADD SWAP2 DUP5 DUP7 LT PUSH2 0x32D JUMPI PUSH1 0x1F ADD PUSH1 0x5 SHR ADD SWAP1 PUSH2 0x27C1 JUMP JUMPDEST CODESIZE PUSH2 0x1A0A JUMP JUMPDEST POP SWAP1 CALLVALUE PUSH2 0x34C JUMPI PUSH1 0x20 CALLDATASIZE PUSH1 0x3 NOT ADD SLT PUSH2 0x34C JUMPI CALLDATALOAD SWAP1 PUSH1 0xA SLOAD DUP3 LT ISZERO PUSH2 0x34C JUMPI PUSH1 0xA PUSH1 0x0 MSTORE PUSH32 0xC65A7BB8D6351C1CF70C95A316CC6A92839C986682D98BC35F958F4883F9D2A8 SWAP1 SWAP2 ADD SLOAD SWAP1 MLOAD PUSH1 0x1 PUSH1 0x1 PUSH1 0xA0 SHL SUB SWAP2 SWAP1 SWAP2 AND DUP2 MSTORE PUSH1 0x20 SWAP1 RETURN JUMPDEST POP CALLVALUE PUSH2 0x34C JUMPI PUSH1 0x0 CALLDATASIZE PUSH1 0x3 NOT ADD SLT PUSH2 0x34C JUMPI PUSH1 0xB SLOAD SWAP1 PUSH2 0x1B3C DUP3 PUSH2 0x2981 JUMP JUMPDEST SWAP2 PUSH1 0x0 JUMPDEST DUP2 DUP2 LT PUSH2 0x1B54 JUMPI DUP3 MLOAD DUP1 PUSH2 0x396 DUP7 DUP3 PUSH2 0x2564 JUMP JUMPDEST PUSH2 0x1B91 SWAP1 PUSH1 0x1 DUP1 PUSH1 0xA0 SHL SUB DUP1 DUP3 PUSH1 0x0 DUP1 MLOAD PUSH1 0x20 PUSH2 0x2B32 DUP4 CODECOPY DUP2 MLOAD SWAP2 MSTORE ADD SLOAD AND PUSH1 0x0 MSTORE PUSH2 0x564 PUSH1 0x5 PUSH1 0x20 DUP2 DUP2 MSTORE DUP8 PUSH1 0x0 KECCAK256 SWAP1 DUP9 MLOAD SWAP5 PUSH2 0x6CA DUP7 PUSH2 0x2357 JUMP JUMPDEST PUSH2 0x1B40 JUMP JUMPDEST POP CALLVALUE PUSH2 0x34C JUMPI PUSH1 0x0 CALLDATASIZE PUSH1 0x3 NOT ADD SLT PUSH2 0x34C JUMPI PUSH1 0x20 SWAP1 PUSH1 0x2 SLOAD SWAP1 MLOAD SWAP1 DUP2 MSTORE RETURN JUMPDEST POP SWAP1 CALLVALUE PUSH2 0x34C JUMPI PUSH1 0x20 CALLDATASIZE PUSH1 0x3 NOT ADD SLT PUSH2 0x34C JUMPI CALLDATALOAD SWAP1 PUSH1 0x7 SLOAD DUP3 LT ISZERO PUSH2 0x34C JUMPI PUSH1 0x7 PUSH1 0x0 MSTORE PUSH32 0xA66CC928B5EDB82AF9BD49922954155AB7B0942694BEA4CE44661D9A8736C688 SWAP1 SWAP2 ADD SLOAD SWAP1 MLOAD PUSH1 0x1 PUSH1 0x1 PUSH1 0xA0 SHL SUB SWAP2 SWAP1 SWAP2 AND DUP2 MSTORE PUSH1 0x20 SWAP1 RETURN JUMPDEST POP CALLVALUE PUSH2 0x34C JUMPI PUSH2 0x1C22 CALLDATASIZE PUSH2 0x23FF JUMP JUMPDEST SWAP1 CALLER PUSH1 0x0 MSTORE PUSH1 0x20 SWAP3 PUSH1 0x6 DUP5 MSTORE PUSH1 0x0 KECCAK256 SWAP2 PUSH2 0x1C46 PUSH1 0x1 DUP1 PUSH1 0xA0 SHL SUB DUP5 SLOAD AND ISZERO ISZERO PUSH2 0x28ED JUMP JUMPDEST PUSH1 0x1 SWAP4 DUP5 DUP5 ADD SWAP4 DUP4 MLOAD SWAP5 PUSH1 0x1 PUSH1 0x1 PUSH1 0x40 SHL SUB SWAP6 DUP7 DUP2 GT PUSH2 0x140B JUMPI PUSH2 0x1C6A DUP3 SLOAD PUSH2 0x267D JUMP JUMPDEST SWAP6 PUSH1 0x1F SWAP7 DUP8 DUP2 GT PUSH2 0x1DDE JUMPI JUMPDEST POP DUP5 SWAP1 DUP8 DUP4 GT PUSH1 0x1 EQ PUSH2 0x1D76 JUMPI PUSH1 0x2 SWAP5 SWAP4 SWAP3 SWAP2 PUSH1 0x0 SWAP2 DUP4 PUSH2 0x1D6B JUMPI JUMPDEST POP POP PUSH1 0x0 NOT PUSH1 0x3 DUP4 SWAP1 SHL SHR NOT AND SWAP1 DUP10 SHL OR SWAP1 SSTORE JUMPDEST ADD SWAP6 DUP3 MLOAD SWAP5 DUP6 GT PUSH2 0xF8A JUMPI POP PUSH2 0x1CBC DUP7 SLOAD PUSH2 0x267D JUMP JUMPDEST DUP4 DUP2 GT PUSH2 0x1D3D JUMPI JUMPDEST POP DUP1 SWAP3 DUP5 GT PUSH1 0x1 EQ PUSH2 0x1CF4 JUMPI POP SWAP3 DUP3 SWAP4 SWAP2 DUP4 SWAP3 PUSH1 0x0 SWAP5 PUSH2 0x12C4 JUMPI POP POP SHL SWAP2 PUSH1 0x0 NOT SWAP1 PUSH1 0x3 SHL SHR NOT AND OR SWAP1 SSTORE PUSH1 0x0 DUP1 RETURN JUMPDEST SWAP2 SWAP1 DUP4 PUSH1 0x1F NOT DUP2 AND DUP8 PUSH1 0x0 MSTORE DUP5 PUSH1 0x0 KECCAK256 SWAP5 PUSH1 0x0 SWAP1 JUMPDEST DUP9 DUP4 DUP4 LT PUSH2 0x1D23 JUMPI POP POP POP LT PUSH2 0x12FF JUMPI POP POP POP DUP2 SHL ADD SWAP1 SSTORE STOP JUMPDEST DUP6 DUP8 ADD MLOAD DUP9 SSTORE SWAP1 SWAP7 ADD SWAP6 SWAP5 DUP6 ADD SWAP5 DUP8 SWAP4 POP SWAP1 DUP2 ADD SWAP1 PUSH2 0x1D09 JUMP JUMPDEST PUSH2 0x1D65 SWAP1 DUP8 PUSH1 0x0 MSTORE DUP3 PUSH1 0x0 KECCAK256 DUP6 DUP1 DUP9 ADD PUSH1 0x5 SHR DUP3 ADD SWAP3 DUP6 DUP10 LT PUSH2 0x1361 JUMPI ADD PUSH1 0x5 SHR ADD SWAP1 PUSH2 0x27C1 JUMP JUMPDEST CODESIZE PUSH2 0x1CC4 JUMP JUMPDEST ADD MLOAD SWAP1 POP CODESIZE DUP1 PUSH2 0x1C92 JUMP JUMPDEST SWAP4 SWAP3 SWAP2 DUP10 SWAP2 PUSH1 0x1F NOT DUP3 AND SWAP1 DUP5 PUSH1 0x0 MSTORE DUP8 PUSH1 0x0 KECCAK256 SWAP2 PUSH1 0x0 JUMPDEST DUP10 DUP3 DUP3 LT PUSH2 0x1DC8 JUMPI POP POP SWAP7 DUP4 PUSH1 0x2 SWAP9 LT PUSH2 0x1DAF JUMPI JUMPDEST POP POP POP DUP2 SHL ADD SWAP1 SSTORE PUSH2 0x1CA6 JUMP JUMPDEST ADD MLOAD PUSH1 0x0 NOT PUSH1 0xF8 DUP5 PUSH1 0x3 SHL AND SHR NOT AND SWAP1 SSTORE CODESIZE DUP1 DUP1 PUSH2 0x1DA2 JUMP JUMPDEST DUP4 DUP11 ADD MLOAD DUP6 SSTORE DUP15 SWAP7 SWAP1 SWAP5 ADD SWAP4 SWAP3 DUP4 ADD SWAP3 ADD PUSH2 0x1D8D JUMP JUMPDEST PUSH2 0x1E06 SWAP1 DUP5 PUSH1 0x0 MSTORE DUP7 PUSH1 0x0 KECCAK256 DUP10 DUP1 DUP7 ADD PUSH1 0x5 SHR DUP3 ADD SWAP3 DUP10 DUP8 LT PUSH2 0x1361 JUMPI ADD PUSH1 0x5 SHR ADD SWAP1 PUSH2 0x27C1 JUMP JUMPDEST CODESIZE PUSH2 0x1C76 JUMP JUMPDEST POP SWAP1 CALLVALUE PUSH2 0x34C JUMPI PUSH1 0x20 CALLDATASIZE PUSH1 0x3 NOT ADD SLT PUSH2 0x34C JUMPI CALLDATALOAD SWAP1 PUSH1 0xB SLOAD DUP3 LT ISZERO PUSH2 0x34C JUMPI PUSH1 0xB PUSH1 0x0 MSTORE PUSH1 0x0 DUP1 MLOAD PUSH1 0x20 PUSH2 0x2B32 DUP4 CODECOPY DUP2 MLOAD SWAP2 MSTORE SWAP1 SWAP2 ADD SLOAD SWAP1 MLOAD PUSH1 0x1 PUSH1 0x1 PUSH1 0xA0 SHL SUB SWAP2 SWAP1 SWAP2 AND DUP2 MSTORE PUSH1 0x20 SWAP1 RETURN JUMPDEST POP SWAP1 CALLVALUE PUSH2 0x34C JUMPI PUSH2 0x1E68 CALLDATASIZE PUSH2 0x23FF JUMP JUMPDEST DUP3 SLOAD SWAP4 DUP1 MLOAD SWAP5 PUSH2 0x1E77 DUP7 PUSH2 0x2357 JUMP JUMPDEST CALLER DUP7 MSTORE PUSH1 0x20 DUP7 ADD SWAP4 DUP5 MSTORE DUP2 DUP7 ADD SWAP3 DUP4 MSTORE PUSH1 0x60 DUP7 ADD SWAP1 DUP2 MSTORE PUSH1 0x80 DUP7 ADD SWAP1 PUSH1 0x0 DUP3 MSTORE PUSH1 0xA0 DUP8 ADD SWAP3 PUSH1 0x0 DUP5 MSTORE PUSH2 0x1EA8 PUSH2 0x2769 JUMP JUMPDEST PUSH1 0xC0 DUP10 ADD MSTORE CALLER PUSH1 0x0 SWAP1 DUP2 MSTORE PUSH1 0x6 PUSH1 0x20 MSTORE KECCAK256 DUP8 MLOAD DUP2 SLOAD PUSH1 0x1 PUSH1 0x1 PUSH1 0xA0 SHL SUB NOT AND PUSH1 0x1 PUSH1 0x1 PUSH1 0xA0 SHL SUB SWAP2 DUP3 AND OR DUP3 SSTORE SWAP6 MLOAD DUP1 MLOAD SWAP2 SWAP6 SWAP2 SWAP1 PUSH1 0x1 PUSH1 0x1 PUSH1 0x40 SHL SUB DUP3 GT PUSH2 0x140B JUMPI DUP2 SWAP1 PUSH2 0x1EFA PUSH1 0x1 DUP10 ADD SLOAD PUSH2 0x267D JUMP JUMPDEST PUSH1 0x1F DUP2 GT PUSH2 0x2227 JUMPI JUMPDEST POP PUSH1 0x20 SWAP1 PUSH1 0x1F DUP4 GT PUSH1 0x1 EQ PUSH2 0x21B5 JUMPI PUSH1 0x0 SWAP3 PUSH2 0x21AA JUMPI JUMPDEST POP POP DUP2 PUSH1 0x1 SHL SWAP2 PUSH1 0x0 NOT SWAP1 PUSH1 0x3 SHL SHR NOT AND OR PUSH1 0x1 DUP7 ADD SSTORE JUMPDEST MLOAD DUP1 MLOAD PUSH1 0x2 DUP7 ADD SWAP2 PUSH1 0x1 PUSH1 0x1 PUSH1 0x40 SHL SUB DUP3 GT PUSH2 0x140B JUMPI DUP2 SWAP1 PUSH2 0x1F54 DUP5 SLOAD PUSH2 0x267D JUMP JUMPDEST PUSH1 0x1F DUP2 GT PUSH2 0x2178 JUMPI JUMPDEST POP PUSH1 0x20 SWAP1 PUSH1 0x1F DUP4 GT PUSH1 0x1 EQ PUSH2 0x2112 JUMPI PUSH1 0x0 SWAP3 PUSH2 0x2107 JUMPI JUMPDEST POP POP DUP2 PUSH1 0x1 SHL SWAP2 PUSH1 0x0 NOT SWAP1 PUSH1 0x3 SHL SHR NOT AND OR SWAP1 SSTORE JUMPDEST MLOAD PUSH1 0x3 DUP5 ADD SSTORE MLOAD PUSH1 0x3 DUP2 LT ISZERO PUSH2 0x20F2 JUMPI SWAP2 PUSH1 0x6 SWAP2 PUSH2 0x1FAB PUSH1 0xC0 SWAP5 DUP8 DUP5 ADD PUSH2 0x27D8 JUMP JUMPDEST MLOAD PUSH1 0x5 DUP3 ADD SSTORE ADD SWAP4 ADD MLOAD SWAP3 DUP4 MLOAD PUSH1 0x1 PUSH1 0x1 PUSH1 0x40 SHL SUB DUP2 GT PUSH2 0x11CD JUMPI PUSH2 0x1FD0 DUP3 SLOAD PUSH2 0x267D JUMP JUMPDEST PUSH1 0x1F DUP2 GT PUSH2 0x20C0 JUMPI JUMPDEST POP PUSH1 0x20 SWAP5 PUSH1 0x1F DUP3 GT PUSH1 0x1 EQ PUSH2 0x205A JUMPI SWAP5 DUP2 SWAP3 SWAP4 SWAP5 SWAP6 PUSH1 0x0 SWAP3 PUSH2 0x204F JUMPI JUMPDEST POP POP DUP2 PUSH1 0x1 SHL SWAP2 PUSH1 0x0 NOT SWAP1 PUSH1 0x3 SHL SHR NOT AND OR SWAP1 SSTORE JUMPDEST PUSH1 0x8 SLOAD PUSH1 0x1 PUSH1 0x40 SHL DUP2 LT ISZERO PUSH2 0x1042 JUMPI DUP1 PUSH1 0x1 PUSH2 0x202A SWAP3 ADD PUSH1 0x8 SSTORE PUSH2 0x2442 JUMP JUMPDEST DUP2 SWAP3 SWAP2 SLOAD SWAP1 PUSH1 0x3 SHL SWAP2 DUP3 SHL DUP1 SWAP3 CALLER SWAP1 SHL AND SWAP2 NOT AND OR SWAP1 SSTORE PUSH2 0x204B DUP2 SLOAD PUSH2 0x2832 JUMP JUMPDEST SWAP1 SSTORE STOP JUMPDEST ADD MLOAD SWAP1 POP CODESIZE DUP1 PUSH2 0x1FF6 JUMP JUMPDEST PUSH1 0x1F NOT DUP3 AND SWAP6 DUP4 PUSH1 0x0 MSTORE PUSH1 0x20 PUSH1 0x0 KECCAK256 SWAP2 PUSH1 0x0 JUMPDEST DUP9 DUP2 LT PUSH2 0x20A8 JUMPI POP DUP4 PUSH1 0x1 SWAP6 SWAP7 SWAP8 SWAP9 LT PUSH2 0x208F JUMPI JUMPDEST POP POP POP DUP2 SHL ADD SWAP1 SSTORE PUSH2 0x200B JUMP JUMPDEST ADD MLOAD PUSH1 0x0 NOT PUSH1 0xF8 DUP5 PUSH1 0x3 SHL AND SHR NOT AND SWAP1 SSTORE CODESIZE DUP1 DUP1 PUSH2 0x2082 JUMP JUMPDEST SWAP2 SWAP3 PUSH1 0x20 PUSH1 0x1 DUP2 SWAP3 DUP7 DUP6 ADD MLOAD DUP2 SSTORE ADD SWAP5 ADD SWAP3 ADD PUSH2 0x206D JUMP JUMPDEST PUSH2 0x20EC SWAP1 DUP4 PUSH1 0x0 MSTORE PUSH1 0x20 PUSH1 0x0 KECCAK256 PUSH1 0x1F DUP5 ADD PUSH1 0x5 SHR DUP2 ADD SWAP2 PUSH1 0x20 DUP6 LT PUSH2 0x32D JUMPI PUSH1 0x1F ADD PUSH1 0x5 SHR ADD SWAP1 PUSH2 0x27C1 JUMP JUMPDEST CODESIZE PUSH2 0x1FD9 JUMP JUMPDEST PUSH1 0x21 DUP6 PUSH4 0x4E487B71 PUSH1 0xE0 SHL PUSH1 0x0 MSTORE MSTORE PUSH1 0x24 PUSH1 0x0 REVERT JUMPDEST ADD MLOAD SWAP1 POP CODESIZE DUP1 PUSH2 0x1F74 JUMP JUMPDEST PUSH1 0x0 DUP6 DUP2 MSTORE PUSH1 0x20 DUP2 KECCAK256 SWAP4 POP PUSH1 0x1F NOT DUP6 AND SWAP1 JUMPDEST DUP2 DUP2 LT PUSH2 0x2160 JUMPI POP SWAP1 DUP5 PUSH1 0x1 SWAP6 SWAP5 SWAP4 SWAP3 LT PUSH2 0x2147 JUMPI JUMPDEST POP POP POP DUP2 SHL ADD SWAP1 SSTORE PUSH2 0x1F89 JUMP JUMPDEST ADD MLOAD PUSH1 0x0 NOT PUSH1 0xF8 DUP5 PUSH1 0x3 SHL AND SHR NOT AND SWAP1 SSTORE CODESIZE DUP1 DUP1 PUSH2 0x213A JUMP JUMPDEST SWAP3 SWAP4 PUSH1 0x20 PUSH1 0x1 DUP2 SWAP3 DUP8 DUP7 ADD MLOAD DUP2 SSTORE ADD SWAP6 ADD SWAP4 ADD PUSH2 0x2124 JUMP JUMPDEST PUSH2 0x21A4 SWAP1 DUP6 PUSH1 0x0 MSTORE PUSH1 0x20 PUSH1 0x0 KECCAK256 PUSH1 0x1F DUP6 ADD PUSH1 0x5 SHR DUP2 ADD SWAP2 PUSH1 0x20 DUP7 LT PUSH2 0x32D JUMPI PUSH1 0x1F ADD PUSH1 0x5 SHR ADD SWAP1 PUSH2 0x27C1 JUMP JUMPDEST CODESIZE PUSH2 0x1F5D JUMP JUMPDEST ADD MLOAD SWAP1 POP CODESIZE DUP1 PUSH2 0x1F1A JUMP JUMPDEST SWAP3 POP PUSH1 0x1 DUP9 ADD PUSH1 0x0 MSTORE PUSH1 0x20 PUSH1 0x0 KECCAK256 SWAP1 PUSH1 0x0 SWAP4 JUMPDEST PUSH1 0x1F NOT DUP5 AND DUP6 LT PUSH2 0x220C JUMPI PUSH1 0x1 SWAP5 POP DUP4 PUSH1 0x1F NOT DUP2 AND LT PUSH2 0x21F3 JUMPI JUMPDEST POP POP POP DUP2 SHL ADD PUSH1 0x1 DUP7 ADD SSTORE PUSH2 0x1F32 JUMP JUMPDEST ADD MLOAD PUSH1 0x0 NOT PUSH1 0xF8 DUP5 PUSH1 0x3 SHL AND SHR NOT AND SWAP1 SSTORE CODESIZE DUP1 DUP1 PUSH2 0x21E3 JUMP JUMPDEST DUP2 DUP2 ADD MLOAD DUP4 SSTORE PUSH1 0x20 SWAP5 DUP6 ADD SWAP5 PUSH1 0x1 SWAP1 SWAP4 ADD SWAP3 SWAP1 SWAP2 ADD SWAP1 PUSH2 0x21C8 JUMP JUMPDEST PUSH2 0x2256 SWAP1 PUSH1 0x1 DUP11 ADD PUSH1 0x0 MSTORE PUSH1 0x20 PUSH1 0x0 KECCAK256 PUSH1 0x1F DUP6 ADD PUSH1 0x5 SHR DUP2 ADD SWAP2 PUSH1 0x20 DUP7 LT PUSH2 0x32D JUMPI PUSH1 0x1F ADD PUSH1 0x5 SHR ADD SWAP1 PUSH2 0x27C1 JUMP JUMPDEST CODESIZE PUSH2 0x1F03 JUMP JUMPDEST POP CALLVALUE PUSH2 0x34C JUMPI PUSH1 0x0 CALLDATASIZE PUSH1 0x3 NOT ADD SLT PUSH2 0x34C JUMPI PUSH2 0x396 SWAP1 PUSH2 0x383 PUSH2 0x2A31 JUMP JUMPDEST SWAP2 SWAP1 DUP3 MLOAD SWAP3 DUP4 DUP3 MSTORE PUSH1 0x0 JUMPDEST DUP5 DUP2 LT PUSH2 0x22A6 JUMPI POP POP DUP3 PUSH1 0x0 PUSH1 0x20 DUP1 SWAP5 SWAP6 DUP5 ADD ADD MSTORE PUSH1 0x1F DUP1 NOT SWAP2 ADD AND ADD ADD SWAP1 JUMP JUMPDEST PUSH1 0x20 DUP2 DUP4 ADD DUP2 ADD MLOAD DUP5 DUP4 ADD DUP3 ADD MSTORE ADD PUSH2 0x2285 JUMP JUMPDEST SWAP1 PUSH1 0x3 DUP3 LT ISZERO PUSH2 0x22C7 JUMPI MSTORE JUMP JUMPDEST PUSH4 0x4E487B71 PUSH1 0xE0 SHL PUSH1 0x0 MSTORE PUSH1 0x21 PUSH1 0x4 MSTORE PUSH1 0x24 PUSH1 0x0 REVERT JUMPDEST PUSH2 0x2354 SWAP2 PUSH1 0x1 DUP1 PUSH1 0xA0 SHL SUB DUP3 MLOAD AND DUP2 MSTORE PUSH1 0xC0 PUSH2 0x231D PUSH2 0x230B PUSH1 0x20 DUP6 ADD MLOAD PUSH1 0xE0 PUSH1 0x20 DUP7 ADD MSTORE PUSH1 0xE0 DUP6 ADD SWAP1 PUSH2 0x227A JUMP JUMPDEST PUSH1 0x40 DUP6 ADD MLOAD DUP5 DUP3 SUB PUSH1 0x40 DUP7 ADD MSTORE PUSH2 0x227A JUMP JUMPDEST SWAP3 PUSH1 0x60 DUP2 ADD MLOAD PUSH1 0x60 DUP5 ADD MSTORE PUSH2 0x233A PUSH1 0x80 DUP3 ADD MLOAD PUSH1 0x80 DUP6 ADD SWAP1 PUSH2 0x22BA JUMP JUMPDEST PUSH1 0xA0 DUP2 ADD MLOAD PUSH1 0xA0 DUP5 ADD MSTORE ADD MLOAD SWAP1 PUSH1 0xC0 DUP2 DUP5 SUB SWAP2 ADD MSTORE PUSH2 0x227A JUMP JUMPDEST SWAP1 JUMP JUMPDEST PUSH1 0xE0 DUP2 ADD SWAP1 DUP2 LT PUSH1 0x1 PUSH1 0x1 PUSH1 0x40 SHL SUB DUP3 GT OR PUSH2 0x2372 JUMPI PUSH1 0x40 MSTORE JUMP JUMPDEST PUSH4 0x4E487B71 PUSH1 0xE0 SHL PUSH1 0x0 MSTORE PUSH1 0x41 PUSH1 0x4 MSTORE PUSH1 0x24 PUSH1 0x0 REVERT JUMPDEST SWAP1 PUSH1 0x1F DUP1 NOT SWAP2 ADD AND DUP2 ADD SWAP1 DUP2 LT PUSH1 0x1 PUSH1 0x1 PUSH1 0x40 SHL SUB DUP3 GT OR PUSH2 0x2372 JUMPI PUSH1 0x40 MSTORE JUMP JUMPDEST DUP2 PUSH1 0x1F DUP3 ADD SLT ISZERO PUSH2 0x34C JUMPI DUP1 CALLDATALOAD SWAP1 PUSH1 0x1 PUSH1 0x1 PUSH1 0x40 SHL SUB DUP3 GT PUSH2 0x2372 JUMPI PUSH1 0x40 MLOAD SWAP3 PUSH2 0x23DD PUSH1 0x1F DUP5 ADD PUSH1 0x1F NOT AND PUSH1 0x20 ADD DUP6 PUSH2 0x2388 JUMP JUMPDEST DUP3 DUP5 MSTORE PUSH1 0x20 DUP4 DUP4 ADD ADD GT PUSH2 0x34C JUMPI DUP2 PUSH1 0x0 SWAP3 PUSH1 0x20 DUP1 SWAP4 ADD DUP4 DUP7 ADD CALLDATACOPY DUP4 ADD ADD MSTORE SWAP1 JUMP JUMPDEST SWAP1 PUSH1 0x40 PUSH1 0x3 NOT DUP4 ADD SLT PUSH2 0x34C JUMPI PUSH1 0x1 PUSH1 0x1 PUSH1 0x40 SHL SUB PUSH1 0x4 CALLDATALOAD DUP2 DUP2 GT PUSH2 0x34C JUMPI DUP4 PUSH2 0x242B SWAP2 PUSH1 0x4 ADD PUSH2 0x23A9 JUMP JUMPDEST SWAP3 PUSH1 0x24 CALLDATALOAD SWAP2 DUP3 GT PUSH2 0x34C JUMPI PUSH2 0x2354 SWAP2 PUSH1 0x4 ADD PUSH2 0x23A9 JUMP JUMPDEST PUSH1 0x8 SLOAD DUP2 LT ISZERO PUSH2 0x2479 JUMPI PUSH1 0x8 PUSH1 0x0 MSTORE PUSH32 0xF3F7A9FE364FAAB93B216DA50A3214154F22A0A2B415B23A84C8169E8B636EE3 ADD SWAP1 PUSH1 0x0 SWAP1 JUMP JUMPDEST PUSH4 0x4E487B71 PUSH1 0xE0 SHL PUSH1 0x0 MSTORE PUSH1 0x32 PUSH1 0x4 MSTORE PUSH1 0x24 PUSH1 0x0 REVERT JUMPDEST PUSH1 0x7 SLOAD DUP2 LT ISZERO PUSH2 0x2479 JUMPI PUSH1 0x7 PUSH1 0x0 MSTORE PUSH32 0xA66CC928B5EDB82AF9BD49922954155AB7B0942694BEA4CE44661D9A8736C688 ADD SWAP1 PUSH1 0x0 SWAP1 JUMP JUMPDEST PUSH1 0xA SLOAD DUP2 LT ISZERO PUSH2 0x2479 JUMPI PUSH1 0xA PUSH1 0x0 MSTORE PUSH32 0xC65A7BB8D6351C1CF70C95A316CC6A92839C986682D98BC35F958F4883F9D2A8 ADD SWAP1 PUSH1 0x0 SWAP1 JUMP JUMPDEST PUSH2 0x2354 SWAP2 PUSH1 0x1 DUP1 PUSH1 0xA0 SHL SUB DUP3 MLOAD AND DUP2 MSTORE PUSH1 0xC0 PUSH2 0x252B PUSH2 0x230B PUSH1 0x20 DUP6 ADD MLOAD PUSH1 0xE0 PUSH1 0x20 DUP7 ADD MSTORE PUSH1 0xE0 DUP6 ADD SWAP1 PUSH2 0x227A JUMP JUMPDEST SWAP3 PUSH1 0x60 DUP2 ADD MLOAD PUSH1 0x60 DUP5 ADD MSTORE PUSH2 0x2548 PUSH1 0x80 DUP3 ADD MLOAD PUSH1 0x80 DUP6 ADD SWAP1 PUSH2 0x22BA JUMP JUMPDEST PUSH1 0xA0 DUP2 ADD MLOAD ISZERO ISZERO PUSH1 0xA0 DUP5 ADD MSTORE ADD MLOAD SWAP1 PUSH1 0xC0 DUP2 DUP5 SUB SWAP2 ADD MSTORE PUSH2 0x227A JUMP JUMPDEST PUSH1 0x20 DUP1 DUP3 ADD SWAP1 DUP1 DUP4 MSTORE DUP4 MLOAD DUP1 SWAP3 MSTORE PUSH1 0x40 DUP4 ADD SWAP3 DUP2 PUSH1 0x40 DUP5 PUSH1 0x5 SHL DUP4 ADD ADD SWAP6 ADD SWAP4 PUSH1 0x0 SWAP2 JUMPDEST DUP5 DUP4 LT PUSH2 0x2598 JUMPI POP POP POP POP POP POP SWAP1 JUMP JUMPDEST SWAP1 SWAP2 SWAP3 SWAP4 SWAP5 SWAP6 DUP5 DUP1 PUSH2 0x25B6 PUSH1 0x1 SWAP4 PUSH1 0x3F NOT DUP7 DUP3 SUB ADD DUP8 MSTORE DUP11 MLOAD PUSH2 0x24FD JUMP JUMPDEST SWAP9 ADD SWAP4 ADD SWAP4 ADD SWAP2 SWAP5 SWAP4 SWAP3 SWAP1 PUSH2 0x2588 JUMP JUMPDEST PUSH1 0x4 CALLDATALOAD SWAP1 PUSH1 0x1 PUSH1 0x1 PUSH1 0xA0 SHL SUB DUP3 AND DUP3 SUB PUSH2 0x34C JUMPI JUMP JUMPDEST SWAP1 PUSH1 0x40 PUSH1 0x3 NOT DUP4 ADD SLT PUSH2 0x34C JUMPI PUSH1 0x4 CALLDATALOAD PUSH1 0x1 PUSH1 0x1 PUSH1 0xA0 SHL SUB DUP2 AND DUP2 SUB PUSH2 0x34C JUMPI SWAP2 PUSH1 0x24 CALLDATALOAD SWAP1 PUSH1 0x1 PUSH1 0x1 PUSH1 0x40 SHL SUB DUP3 GT PUSH2 0x34C JUMPI PUSH2 0x2354 SWAP2 PUSH1 0x4 ADD PUSH2 0x23A9 JUMP JUMPDEST PUSH1 0x20 DUP1 DUP3 ADD SWAP1 DUP1 DUP4 MSTORE DUP4 MLOAD DUP1 SWAP3 MSTORE PUSH1 0x40 DUP4 ADD SWAP3 DUP2 PUSH1 0x40 DUP5 PUSH1 0x5 SHL DUP4 ADD ADD SWAP6 ADD SWAP4 PUSH1 0x0 SWAP2 JUMPDEST DUP5 DUP4 LT PUSH2 0x264F JUMPI POP POP POP POP POP POP SWAP1 JUMP JUMPDEST SWAP1 SWAP2 SWAP3 SWAP4 SWAP5 SWAP6 DUP5 DUP1 PUSH2 0x266D PUSH1 0x1 SWAP4 PUSH1 0x3F NOT DUP7 DUP3 SUB ADD DUP8 MSTORE DUP11 MLOAD PUSH2 0x22DD JUMP JUMPDEST SWAP9 ADD SWAP4 ADD SWAP4 ADD SWAP2 SWAP5 SWAP4 SWAP3 SWAP1 PUSH2 0x263F JUMP JUMPDEST SWAP1 PUSH1 0x1 DUP3 DUP2 SHR SWAP3 AND DUP1 ISZERO PUSH2 0x26AD JUMPI JUMPDEST PUSH1 0x20 DUP4 LT EQ PUSH2 0x2697 JUMPI JUMP JUMPDEST PUSH4 0x4E487B71 PUSH1 0xE0 SHL PUSH1 0x0 MSTORE PUSH1 0x22 PUSH1 0x4 MSTORE PUSH1 0x24 PUSH1 0x0 REVERT JUMPDEST SWAP2 PUSH1 0x7F AND SWAP2 PUSH2 0x268C JUMP JUMPDEST SWAP1 PUSH1 0x40 MLOAD SWAP2 DUP3 PUSH1 0x0 DUP3 SLOAD SWAP3 PUSH2 0x26CB DUP5 PUSH2 0x267D JUMP JUMPDEST SWAP1 DUP2 DUP5 MSTORE PUSH1 0x1 SWAP5 DUP6 DUP2 AND SWAP1 DUP2 PUSH1 0x0 EQ PUSH2 0x273A JUMPI POP PUSH1 0x1 EQ PUSH2 0x26F7 JUMPI JUMPDEST POP POP PUSH2 0x26F5 SWAP3 POP SUB DUP4 PUSH2 0x2388 JUMP JUMPDEST JUMP JUMPDEST SWAP1 SWAP4 SWAP2 POP PUSH1 0x0 MSTORE PUSH1 0x20 SWAP1 DUP2 PUSH1 0x0 KECCAK256 SWAP4 PUSH1 0x0 SWAP2 JUMPDEST DUP2 DUP4 LT PUSH2 0x2722 JUMPI POP POP PUSH2 0x26F5 SWAP4 POP DUP3 ADD ADD CODESIZE DUP1 PUSH2 0x26E7 JUMP JUMPDEST DUP6 SLOAD DUP9 DUP5 ADD DUP6 ADD MSTORE SWAP5 DUP6 ADD SWAP5 DUP8 SWAP5 POP SWAP2 DUP4 ADD SWAP2 PUSH2 0x270A JUMP JUMPDEST SWAP2 POP POP PUSH2 0x26F5 SWAP5 POP PUSH1 0x20 SWAP3 POP PUSH1 0xFF NOT AND DUP3 DUP5 ADD MSTORE ISZERO ISZERO PUSH1 0x5 SHL DUP3 ADD ADD CODESIZE DUP1 PUSH2 0x26E7 JUMP JUMPDEST PUSH1 0x3 DUP3 LT ISZERO PUSH2 0x22C7 JUMPI MSTORE JUMP JUMPDEST PUSH1 0x40 MLOAD SWAP1 PUSH1 0x60 DUP3 ADD DUP3 DUP2 LT PUSH1 0x1 PUSH1 0x1 PUSH1 0x40 SHL SUB DUP3 GT OR PUSH2 0x2372 JUMPI PUSH1 0x40 MSTORE PUSH1 0x26 DUP3 MSTORE PUSH6 0x656E64696E67 PUSH1 0xD0 SHL PUSH1 0x40 DUP4 PUSH32 0x43757272656E746C7920796F757220726567697374657274696F6E2069732070 PUSH1 0x20 DUP3 ADD MSTORE ADD MSTORE JUMP JUMPDEST DUP2 DUP2 LT PUSH2 0x27CC JUMPI POP POP JUMP JUMPDEST PUSH1 0x0 DUP2 SSTORE PUSH1 0x1 ADD PUSH2 0x27C1 JUMP JUMPDEST SWAP1 PUSH1 0x3 DUP2 LT ISZERO PUSH2 0x22C7 JUMPI PUSH1 0xFF DUP1 NOT DUP4 SLOAD AND SWAP2 AND OR SWAP1 SSTORE JUMP JUMPDEST PUSH1 0xA SLOAD PUSH1 0x1 PUSH1 0x40 SHL DUP2 LT ISZERO PUSH2 0x2372 JUMPI DUP1 PUSH1 0x1 PUSH2 0x280F SWAP3 ADD PUSH1 0xA SSTORE PUSH2 0x24C6 JUMP JUMPDEST DUP2 SWAP3 SWAP2 SLOAD SWAP1 PUSH1 0x3 SHL SWAP2 PUSH1 0x1 DUP1 PUSH1 0xA0 SHL SUB SWAP3 DUP4 DUP2 SHL SWAP4 DUP5 SWAP3 AND SWAP1 SHL AND SWAP2 NOT AND OR SWAP1 SSTORE JUMP JUMPDEST PUSH1 0x0 NOT DUP2 EQ PUSH2 0x2841 JUMPI PUSH1 0x1 ADD SWAP1 JUMP JUMPDEST PUSH4 0x4E487B71 PUSH1 0xE0 SHL PUSH1 0x0 MSTORE PUSH1 0x11 PUSH1 0x4 MSTORE PUSH1 0x24 PUSH1 0x0 REVERT JUMPDEST ISZERO PUSH2 0x285E JUMPI JUMP JUMPDEST PUSH1 0x40 MLOAD PUSH3 0x461BCD PUSH1 0xE5 SHL DUP2 MSTORE PUSH1 0x20 PUSH1 0x4 DUP3 ADD MSTORE PUSH1 0x22 PUSH1 0x24 DUP3 ADD MSTORE PUSH32 0x4F6E6C79206F776E65722063616E2063616C6C20746869732066756E6374696F PUSH1 0x44 DUP3 ADD MSTORE PUSH2 0x3717 PUSH1 0xF1 SHL PUSH1 0x64 DUP3 ADD MSTORE PUSH1 0x84 SWAP1 REVERT JUMPDEST ISZERO PUSH2 0x28B5 JUMPI JUMP JUMPDEST PUSH1 0x40 MLOAD PUSH3 0x461BCD PUSH1 0xE5 SHL DUP2 MSTORE PUSH1 0x20 PUSH1 0x4 DUP3 ADD MSTORE PUSH1 0x10 PUSH1 0x24 DUP3 ADD MSTORE PUSH16 0x2B37BA32B9103737BA103337BAB73217 PUSH1 0x81 SHL PUSH1 0x44 DUP3 ADD MSTORE PUSH1 0x64 SWAP1 REVERT JUMPDEST ISZERO PUSH2 0x28F4 JUMPI JUMP JUMPDEST PUSH1 0x40 MLOAD PUSH3 0x461BCD PUSH1 0xE5 SHL DUP2 MSTORE PUSH1 0x20 PUSH1 0x4 DUP3 ADD MSTORE PUSH1 0x14 PUSH1 0x24 DUP3 ADD MSTORE PUSH20 0x21B0B73234B230BA32903737BA103337BAB73217 PUSH1 0x61 SHL PUSH1 0x44 DUP3 ADD MSTORE PUSH1 0x64 SWAP1 REVERT JUMPDEST PUSH1 0x1 PUSH1 0x1 PUSH1 0x40 SHL SUB DUP2 GT PUSH2 0x2372 JUMPI PUSH1 0x5 SHL PUSH1 0x20 ADD SWAP1 JUMP JUMPDEST PUSH1 0x40 MLOAD SWAP1 PUSH2 0x2954 DUP3 PUSH2 0x2357 JUMP JUMPDEST PUSH1 0x60 PUSH1 0xC0 DUP4 PUSH1 0x0 DUP2 MSTORE DUP3 PUSH1 0x20 DUP3 ADD MSTORE DUP3 PUSH1 0x40 DUP3 ADD MSTORE PUSH1 0x0 DUP4 DUP3 ADD MSTORE PUSH1 0x0 PUSH1 0x80 DUP3 ADD MSTORE PUSH1 0x0 PUSH1 0xA0 DUP3 ADD MSTORE ADD MSTORE JUMP JUMPDEST SWAP1 PUSH2 0x298B DUP3 PUSH2 0x2930 JUMP JUMPDEST PUSH2 0x2998 PUSH1 0x40 MLOAD SWAP2 DUP3 PUSH2 0x2388 JUMP JUMPDEST DUP3 DUP2 MSTORE DUP1 SWAP3 PUSH2 0x29A9 PUSH1 0x1F NOT SWAP2 PUSH2 0x2930 JUMP JUMPDEST ADD SWAP1 PUSH1 0x0 JUMPDEST DUP3 DUP2 LT PUSH2 0x29BA JUMPI POP POP POP JUMP JUMPDEST PUSH1 0x20 SWAP1 PUSH2 0x29C5 PUSH2 0x2947 JUMP JUMPDEST DUP3 DUP3 DUP6 ADD ADD MSTORE ADD PUSH2 0x29AE JUMP JUMPDEST DUP1 MLOAD DUP3 LT ISZERO PUSH2 0x2479 JUMPI PUSH1 0x20 SWAP2 PUSH1 0x5 SHL ADD ADD SWAP1 JUMP JUMPDEST PUSH2 0x29EF DUP2 SLOAD PUSH2 0x267D JUMP JUMPDEST SWAP1 DUP2 PUSH2 0x29F9 JUMPI POP POP JUMP JUMPDEST DUP2 PUSH1 0x1F PUSH1 0x0 SWAP4 GT PUSH1 0x1 EQ PUSH2 0x2A0B JUMPI POP SSTORE JUMP JUMPDEST DUP2 DUP4 MSTORE PUSH1 0x20 DUP4 KECCAK256 PUSH2 0x2A27 SWAP2 PUSH1 0x1F ADD PUSH1 0x5 SHR DUP2 ADD SWAP1 PUSH1 0x1 ADD PUSH2 0x27C1 JUMP JUMPDEST DUP2 PUSH1 0x20 DUP2 KECCAK256 SWAP2 SSTORE SSTORE JUMP JUMPDEST PUSH2 0x2A39 PUSH2 0x2947 JUMP JUMPDEST POP PUSH2 0x2A42 PUSH2 0x2947 JUMP JUMPDEST PUSH1 0xA SLOAD PUSH1 0x0 DUP1 JUMPDEST DUP3 DUP2 LT PUSH2 0x2A56 JUMPI POP POP POP SWAP1 JUMP JUMPDEST PUSH2 0x2A5F DUP2 PUSH2 0x24C6 JUMP JUMPDEST PUSH1 0x1 DUP1 PUSH1 0xA0 SHL SUB DUP1 SWAP3 SLOAD PUSH1 0x3 SWAP3 DUP4 SHL SHR AND PUSH1 0x0 MSTORE PUSH2 0x2AE5 PUSH1 0x6 PUSH1 0x20 SWAP3 DUP2 DUP5 MSTORE PUSH1 0x40 DUP1 PUSH1 0x0 KECCAK256 SWAP5 DUP2 MLOAD SWAP7 PUSH2 0x2A91 DUP9 PUSH2 0x2357 JUMP JUMPDEST DUP7 SLOAD AND DUP8 MSTORE PUSH2 0x2AA2 PUSH1 0x1 DUP8 ADD PUSH2 0x26B7 JUMP JUMPDEST SWAP1 DUP8 ADD MSTORE PUSH2 0x2AB2 PUSH1 0x2 DUP7 ADD PUSH2 0x26B7 JUMP JUMPDEST SWAP1 DUP7 ADD MSTORE DUP4 ADD SLOAD PUSH1 0x60 DUP6 ADD MSTORE PUSH2 0x2AD2 PUSH1 0xFF PUSH1 0x4 DUP6 ADD SLOAD AND PUSH1 0x80 DUP7 ADD PUSH2 0x275D JUMP JUMPDEST PUSH1 0x5 DUP4 ADD SLOAD SWAP3 PUSH1 0xA0 DUP6 ADD SWAP4 DUP5 MSTORE ADD PUSH2 0x26B7 JUMP JUMPDEST PUSH1 0xC0 DUP4 ADD MSTORE MLOAD DUP4 DUP2 GT PUSH2 0x2B03 JUMPI JUMPDEST POP POP PUSH2 0x2AFE SWAP1 PUSH2 0x2832 JUMP JUMPDEST PUSH2 0x2A49 JUMP JUMPDEST SWAP1 SWAP5 POP SWAP2 POP PUSH2 0x2AFE CODESIZE PUSH2 0x2AF3 JUMP INVALID PUSH15 0x1540171B6C0C960B71A7020D9F6007 PUSH32 0x6AF931A8BBF590DA0223DACF75C7AF0175B7A638427703F0DBE7BB9BBF987A25 MLOAD PUSH18 0x7B34E79F33B5B1008D1FA01DB9A264697066 PUSH20 0x58221220982E51A2CBCD608B7A6FCEC559C14208 SWAP2 0x21 PUSH21 0xC7AA28FD41955098AFCA2C810064736F6C63430008 GT STOP CALLER "},"methodIdentifiers":{"approveCandidate(address,string)":"7eb21b51","approveVoter(address,string)":"fad761d3","approvedCandidates(uint256)":"3f66f48b","approvedVoters(uint256)":"aed93010","candidates(address)":"8ab66a90","changeOwner(address)":"a6f9dae1","endTime()":"3197cbb6","getAllApprovedCandidates()":"beddc62a","getAllApprovedVoters()":"be230f04","getAllRegisteredCandidates()":"5ca39016","getAllRegisteredVoters()":"d3a078da","getAllVotersWhoVoted()":"3e211ad4","getCandidate(address)":"b7adcf1d","getCurrentVotingStatus()":"000f987f","getVoter(address)":"d4f50f98","getWinningCandidate()":"f927cc29","owner()":"8da5cb5b","registerCandidate(string,string)":"0dbce4dd","registerVoter(string,string)":"8a4c8847","registeredCandidates(uint256)":"6c7f5767","registeredVoters(uint256)":"2436e06b","rejectCandidate(address,string)":"59632c22","rejectVoter(address,string)":"4a2846a8","resetContract()":"b181a8fc","setVotingPeriod(uint256,uint256)":"a15a36c7","startTime()":"78e97925","updateCandidate(string,string)":"2294c28d","updateVoter(string,string)":"860d27fa","vote(address)":"6dd7d8ea","voters(address)":"a3ec138d","votersWhoVoted(uint256)":"10b01b85"}}}}}